{
	"data": {
		"bytecode": {
			"linkReferences": {},
			"object": "61070761004d600b8282823980515f1a6073146041577f4e487b71000000000000000000000000000000000000000000000000000000005f525f60045260245ffd5b305f52607381538281f3fe730000000000000000000000000000000000000000301460806040526004361061004a575f3560e01c8063823ac3731461004e578063918a15cf1461007e57806397aba7f9146100ae575b5f80fd5b610068600480360381019061006391906103df565b6100de565b6040516100759190610465565b60405180910390f35b6100986004803603810190610093919061047e565b610120565b6040516100a591906104b8565b60405180910390f35b6100c860048036038101906100c391906104d1565b61014f565b6040516100d5919061053a565b60405180910390f35b5f8173ffffffffffffffffffffffffffffffffffffffff16610100858561014f565b73ffffffffffffffffffffffffffffffffffffffff161490509392505050565b5f8160405160200161013291906105c7565b604051602081830303815290604052805190602001209050919050565b5f6041825114610194576040517f08c379a000000000000000000000000000000000000000000000000000000000815260040161018b90610646565b60405180910390fd5b5f805f602085015192506040850151915060608501515f1a90506001868285856040515f81526020016040526040516101d0949392919061068e565b6020604051602081039080840390855afa1580156101f0573d5f803e3d5ffd5b50505060206040510351935050505092915050565b5f604051905090565b5f80fd5b5f80fd5b5f819050919050565b61022881610216565b8114610232575f80fd5b50565b5f813590506102438161021f565b92915050565b5f80fd5b5f80fd5b5f601f19601f8301169050919050565b7f4e487b71000000000000000000000000000000000000000000000000000000005f52604160045260245ffd5b61029782610251565b810181811067ffffffffffffffff821117156102b6576102b5610261565b5b80604052505050565b5f6102c8610205565b90506102d4828261028e565b919050565b5f67ffffffffffffffff8211156102f3576102f2610261565b5b6102fc82610251565b9050602081019050919050565b828183375f83830152505050565b5f610329610324846102d9565b6102bf565b9050828152602081018484840111156103455761034461024d565b5b610350848285610309565b509392505050565b5f82601f83011261036c5761036b610249565b5b813561037c848260208601610317565b91505092915050565b5f73ffffffffffffffffffffffffffffffffffffffff82169050919050565b5f6103ae82610385565b9050919050565b6103be816103a4565b81146103c8575f80fd5b50565b5f813590506103d9816103b5565b92915050565b5f805f606084860312156103f6576103f561020e565b5b5f61040386828701610235565b935050602084013567ffffffffffffffff81111561042457610423610212565b5b61043086828701610358565b9250506040610441868287016103cb565b9150509250925092565b5f8115159050919050565b61045f8161044b565b82525050565b5f6020820190506104785f830184610456565b92915050565b5f602082840312156104935761049261020e565b5b5f6104a084828501610235565b91505092915050565b6104b281610216565b82525050565b5f6020820190506104cb5f8301846104a9565b92915050565b5f80604083850312156104e7576104e661020e565b5b5f6104f485828601610235565b925050602083013567ffffffffffffffff81111561051557610514610212565b5b61052185828601610358565b9150509250929050565b610534816103a4565b82525050565b5f60208201905061054d5f83018461052b565b92915050565b5f81905092915050565b7f19457468657265756d205369676e6564204d6573736167653a0a3332000000005f82015250565b5f610591601c83610553565b915061059c8261055d565b601c82019050919050565b5f819050919050565b6105c16105bc82610216565b6105a7565b82525050565b5f6105d182610585565b91506105dd82846105b0565b60208201915081905092915050565b5f82825260208201905092915050565b7f696e76616c6964207369676e6174757265206c656e67746800000000000000005f82015250565b5f6106306018836105ec565b915061063b826105fc565b602082019050919050565b5f6020820190508181035f83015261065d81610624565b9050919050565b61066d81610216565b82525050565b5f60ff82169050919050565b61068881610673565b82525050565b5f6080820190506106a15f830187610664565b6106ae602083018661067f565b6106bb6040830185610664565b6106c86060830184610664565b9594505050505056fea2646970667358221220aa1afb984a28255d26b1a63dad24096a9250509f598020669b02ef44c71e1d6264736f6c634300081a0033",
			"opcodes": "PUSH2 0x707 PUSH2 0x4D PUSH1 0xB DUP3 DUP3 DUP3 CODECOPY DUP1 MLOAD PUSH0 BYTE PUSH1 0x73 EQ PUSH1 0x41 JUMPI PUSH32 0x4E487B7100000000000000000000000000000000000000000000000000000000 PUSH0 MSTORE PUSH0 PUSH1 0x4 MSTORE PUSH1 0x24 PUSH0 REVERT JUMPDEST ADDRESS PUSH0 MSTORE PUSH1 0x73 DUP2 MSTORE8 DUP3 DUP2 RETURN INVALID PUSH20 0x0 ADDRESS EQ PUSH1 0x80 PUSH1 0x40 MSTORE PUSH1 0x4 CALLDATASIZE LT PUSH2 0x4A JUMPI PUSH0 CALLDATALOAD PUSH1 0xE0 SHR DUP1 PUSH4 0x823AC373 EQ PUSH2 0x4E JUMPI DUP1 PUSH4 0x918A15CF EQ PUSH2 0x7E JUMPI DUP1 PUSH4 0x97ABA7F9 EQ PUSH2 0xAE JUMPI JUMPDEST PUSH0 DUP1 REVERT JUMPDEST PUSH2 0x68 PUSH1 0x4 DUP1 CALLDATASIZE SUB DUP2 ADD SWAP1 PUSH2 0x63 SWAP2 SWAP1 PUSH2 0x3DF JUMP JUMPDEST PUSH2 0xDE JUMP JUMPDEST PUSH1 0x40 MLOAD PUSH2 0x75 SWAP2 SWAP1 PUSH2 0x465 JUMP JUMPDEST PUSH1 0x40 MLOAD DUP1 SWAP2 SUB SWAP1 RETURN JUMPDEST PUSH2 0x98 PUSH1 0x4 DUP1 CALLDATASIZE SUB DUP2 ADD SWAP1 PUSH2 0x93 SWAP2 SWAP1 PUSH2 0x47E JUMP JUMPDEST PUSH2 0x120 JUMP JUMPDEST PUSH1 0x40 MLOAD PUSH2 0xA5 SWAP2 SWAP1 PUSH2 0x4B8 JUMP JUMPDEST PUSH1 0x40 MLOAD DUP1 SWAP2 SUB SWAP1 RETURN JUMPDEST PUSH2 0xC8 PUSH1 0x4 DUP1 CALLDATASIZE SUB DUP2 ADD SWAP1 PUSH2 0xC3 SWAP2 SWAP1 PUSH2 0x4D1 JUMP JUMPDEST PUSH2 0x14F JUMP JUMPDEST PUSH1 0x40 MLOAD PUSH2 0xD5 SWAP2 SWAP1 PUSH2 0x53A JUMP JUMPDEST PUSH1 0x40 MLOAD DUP1 SWAP2 SUB SWAP1 RETURN JUMPDEST PUSH0 DUP2 PUSH20 0xFFFFFFFFFFFFFFFFFFFFFFFFFFFFFFFFFFFFFFFF AND PUSH2 0x100 DUP6 DUP6 PUSH2 0x14F JUMP JUMPDEST PUSH20 0xFFFFFFFFFFFFFFFFFFFFFFFFFFFFFFFFFFFFFFFF AND EQ SWAP1 POP SWAP4 SWAP3 POP POP POP JUMP JUMPDEST PUSH0 DUP2 PUSH1 0x40 MLOAD PUSH1 0x20 ADD PUSH2 0x132 SWAP2 SWAP1 PUSH2 0x5C7 JUMP JUMPDEST PUSH1 0x40 MLOAD PUSH1 0x20 DUP2 DUP4 SUB SUB DUP2 MSTORE SWAP1 PUSH1 0x40 MSTORE DUP1 MLOAD SWAP1 PUSH1 0x20 ADD KECCAK256 SWAP1 POP SWAP2 SWAP1 POP JUMP JUMPDEST PUSH0 PUSH1 0x41 DUP3 MLOAD EQ PUSH2 0x194 JUMPI PUSH1 0x40 MLOAD PUSH32 0x8C379A000000000000000000000000000000000000000000000000000000000 DUP2 MSTORE PUSH1 0x4 ADD PUSH2 0x18B SWAP1 PUSH2 0x646 JUMP JUMPDEST PUSH1 0x40 MLOAD DUP1 SWAP2 SUB SWAP1 REVERT JUMPDEST PUSH0 DUP1 PUSH0 PUSH1 0x20 DUP6 ADD MLOAD SWAP3 POP PUSH1 0x40 DUP6 ADD MLOAD SWAP2 POP PUSH1 0x60 DUP6 ADD MLOAD PUSH0 BYTE SWAP1 POP PUSH1 0x1 DUP7 DUP3 DUP6 DUP6 PUSH1 0x40 MLOAD PUSH0 DUP2 MSTORE PUSH1 0x20 ADD PUSH1 0x40 MSTORE PUSH1 0x40 MLOAD PUSH2 0x1D0 SWAP5 SWAP4 SWAP3 SWAP2 SWAP1 PUSH2 0x68E JUMP JUMPDEST PUSH1 0x20 PUSH1 0x40 MLOAD PUSH1 0x20 DUP2 SUB SWAP1 DUP1 DUP5 SUB SWAP1 DUP6 GAS STATICCALL ISZERO DUP1 ISZERO PUSH2 0x1F0 JUMPI RETURNDATASIZE PUSH0 DUP1 RETURNDATACOPY RETURNDATASIZE PUSH0 REVERT JUMPDEST POP POP POP PUSH1 0x20 PUSH1 0x40 MLOAD SUB MLOAD SWAP4 POP POP POP POP SWAP3 SWAP2 POP POP JUMP JUMPDEST PUSH0 PUSH1 0x40 MLOAD SWAP1 POP SWAP1 JUMP JUMPDEST PUSH0 DUP1 REVERT JUMPDEST PUSH0 DUP1 REVERT JUMPDEST PUSH0 DUP2 SWAP1 POP SWAP2 SWAP1 POP JUMP JUMPDEST PUSH2 0x228 DUP2 PUSH2 0x216 JUMP JUMPDEST DUP2 EQ PUSH2 0x232 JUMPI PUSH0 DUP1 REVERT JUMPDEST POP JUMP JUMPDEST PUSH0 DUP2 CALLDATALOAD SWAP1 POP PUSH2 0x243 DUP2 PUSH2 0x21F JUMP JUMPDEST SWAP3 SWAP2 POP POP JUMP JUMPDEST PUSH0 DUP1 REVERT JUMPDEST PUSH0 DUP1 REVERT JUMPDEST PUSH0 PUSH1 0x1F NOT PUSH1 0x1F DUP4 ADD AND SWAP1 POP SWAP2 SWAP1 POP JUMP JUMPDEST PUSH32 0x4E487B7100000000000000000000000000000000000000000000000000000000 PUSH0 MSTORE PUSH1 0x41 PUSH1 0x4 MSTORE PUSH1 0x24 PUSH0 REVERT JUMPDEST PUSH2 0x297 DUP3 PUSH2 0x251 JUMP JUMPDEST DUP2 ADD DUP2 DUP2 LT PUSH8 0xFFFFFFFFFFFFFFFF DUP3 GT OR ISZERO PUSH2 0x2B6 JUMPI PUSH2 0x2B5 PUSH2 0x261 JUMP JUMPDEST JUMPDEST DUP1 PUSH1 0x40 MSTORE POP POP POP JUMP JUMPDEST PUSH0 PUSH2 0x2C8 PUSH2 0x205 JUMP JUMPDEST SWAP1 POP PUSH2 0x2D4 DUP3 DUP3 PUSH2 0x28E JUMP JUMPDEST SWAP2 SWAP1 POP JUMP JUMPDEST PUSH0 PUSH8 0xFFFFFFFFFFFFFFFF DUP3 GT ISZERO PUSH2 0x2F3 JUMPI PUSH2 0x2F2 PUSH2 0x261 JUMP JUMPDEST JUMPDEST PUSH2 0x2FC DUP3 PUSH2 0x251 JUMP JUMPDEST SWAP1 POP PUSH1 0x20 DUP2 ADD SWAP1 POP SWAP2 SWAP1 POP JUMP JUMPDEST DUP3 DUP2 DUP4 CALLDATACOPY PUSH0 DUP4 DUP4 ADD MSTORE POP POP POP JUMP JUMPDEST PUSH0 PUSH2 0x329 PUSH2 0x324 DUP5 PUSH2 0x2D9 JUMP JUMPDEST PUSH2 0x2BF JUMP JUMPDEST SWAP1 POP DUP3 DUP2 MSTORE PUSH1 0x20 DUP2 ADD DUP5 DUP5 DUP5 ADD GT ISZERO PUSH2 0x345 JUMPI PUSH2 0x344 PUSH2 0x24D JUMP JUMPDEST JUMPDEST PUSH2 0x350 DUP5 DUP3 DUP6 PUSH2 0x309 JUMP JUMPDEST POP SWAP4 SWAP3 POP POP POP JUMP JUMPDEST PUSH0 DUP3 PUSH1 0x1F DUP4 ADD SLT PUSH2 0x36C JUMPI PUSH2 0x36B PUSH2 0x249 JUMP JUMPDEST JUMPDEST DUP2 CALLDATALOAD PUSH2 0x37C DUP5 DUP3 PUSH1 0x20 DUP7 ADD PUSH2 0x317 JUMP JUMPDEST SWAP2 POP POP SWAP3 SWAP2 POP POP JUMP JUMPDEST PUSH0 PUSH20 0xFFFFFFFFFFFFFFFFFFFFFFFFFFFFFFFFFFFFFFFF DUP3 AND SWAP1 POP SWAP2 SWAP1 POP JUMP JUMPDEST PUSH0 PUSH2 0x3AE DUP3 PUSH2 0x385 JUMP JUMPDEST SWAP1 POP SWAP2 SWAP1 POP JUMP JUMPDEST PUSH2 0x3BE DUP2 PUSH2 0x3A4 JUMP JUMPDEST DUP2 EQ PUSH2 0x3C8 JUMPI PUSH0 DUP1 REVERT JUMPDEST POP JUMP JUMPDEST PUSH0 DUP2 CALLDATALOAD SWAP1 POP PUSH2 0x3D9 DUP2 PUSH2 0x3B5 JUMP JUMPDEST SWAP3 SWAP2 POP POP JUMP JUMPDEST PUSH0 DUP1 PUSH0 PUSH1 0x60 DUP5 DUP7 SUB SLT ISZERO PUSH2 0x3F6 JUMPI PUSH2 0x3F5 PUSH2 0x20E JUMP JUMPDEST JUMPDEST PUSH0 PUSH2 0x403 DUP7 DUP3 DUP8 ADD PUSH2 0x235 JUMP JUMPDEST SWAP4 POP POP PUSH1 0x20 DUP5 ADD CALLDATALOAD PUSH8 0xFFFFFFFFFFFFFFFF DUP2 GT ISZERO PUSH2 0x424 JUMPI PUSH2 0x423 PUSH2 0x212 JUMP JUMPDEST JUMPDEST PUSH2 0x430 DUP7 DUP3 DUP8 ADD PUSH2 0x358 JUMP JUMPDEST SWAP3 POP POP PUSH1 0x40 PUSH2 0x441 DUP7 DUP3 DUP8 ADD PUSH2 0x3CB JUMP JUMPDEST SWAP2 POP POP SWAP3 POP SWAP3 POP SWAP3 JUMP JUMPDEST PUSH0 DUP2 ISZERO ISZERO SWAP1 POP SWAP2 SWAP1 POP JUMP JUMPDEST PUSH2 0x45F DUP2 PUSH2 0x44B JUMP JUMPDEST DUP3 MSTORE POP POP JUMP JUMPDEST PUSH0 PUSH1 0x20 DUP3 ADD SWAP1 POP PUSH2 0x478 PUSH0 DUP4 ADD DUP5 PUSH2 0x456 JUMP JUMPDEST SWAP3 SWAP2 POP POP JUMP JUMPDEST PUSH0 PUSH1 0x20 DUP3 DUP5 SUB SLT ISZERO PUSH2 0x493 JUMPI PUSH2 0x492 PUSH2 0x20E JUMP JUMPDEST JUMPDEST PUSH0 PUSH2 0x4A0 DUP5 DUP3 DUP6 ADD PUSH2 0x235 JUMP JUMPDEST SWAP2 POP POP SWAP3 SWAP2 POP POP JUMP JUMPDEST PUSH2 0x4B2 DUP2 PUSH2 0x216 JUMP JUMPDEST DUP3 MSTORE POP POP JUMP JUMPDEST PUSH0 PUSH1 0x20 DUP3 ADD SWAP1 POP PUSH2 0x4CB PUSH0 DUP4 ADD DUP5 PUSH2 0x4A9 JUMP JUMPDEST SWAP3 SWAP2 POP POP JUMP JUMPDEST PUSH0 DUP1 PUSH1 0x40 DUP4 DUP6 SUB SLT ISZERO PUSH2 0x4E7 JUMPI PUSH2 0x4E6 PUSH2 0x20E JUMP JUMPDEST JUMPDEST PUSH0 PUSH2 0x4F4 DUP6 DUP3 DUP7 ADD PUSH2 0x235 JUMP JUMPDEST SWAP3 POP POP PUSH1 0x20 DUP4 ADD CALLDATALOAD PUSH8 0xFFFFFFFFFFFFFFFF DUP2 GT ISZERO PUSH2 0x515 JUMPI PUSH2 0x514 PUSH2 0x212 JUMP JUMPDEST JUMPDEST PUSH2 0x521 DUP6 DUP3 DUP7 ADD PUSH2 0x358 JUMP JUMPDEST SWAP2 POP POP SWAP3 POP SWAP3 SWAP1 POP JUMP JUMPDEST PUSH2 0x534 DUP2 PUSH2 0x3A4 JUMP JUMPDEST DUP3 MSTORE POP POP JUMP JUMPDEST PUSH0 PUSH1 0x20 DUP3 ADD SWAP1 POP PUSH2 0x54D PUSH0 DUP4 ADD DUP5 PUSH2 0x52B JUMP JUMPDEST SWAP3 SWAP2 POP POP JUMP JUMPDEST PUSH0 DUP2 SWAP1 POP SWAP3 SWAP2 POP POP JUMP JUMPDEST PUSH32 0x19457468657265756D205369676E6564204D6573736167653A0A333200000000 PUSH0 DUP3 ADD MSTORE POP JUMP JUMPDEST PUSH0 PUSH2 0x591 PUSH1 0x1C DUP4 PUSH2 0x553 JUMP JUMPDEST SWAP2 POP PUSH2 0x59C DUP3 PUSH2 0x55D JUMP JUMPDEST PUSH1 0x1C DUP3 ADD SWAP1 POP SWAP2 SWAP1 POP JUMP JUMPDEST PUSH0 DUP2 SWAP1 POP SWAP2 SWAP1 POP JUMP JUMPDEST PUSH2 0x5C1 PUSH2 0x5BC DUP3 PUSH2 0x216 JUMP JUMPDEST PUSH2 0x5A7 JUMP JUMPDEST DUP3 MSTORE POP POP JUMP JUMPDEST PUSH0 PUSH2 0x5D1 DUP3 PUSH2 0x585 JUMP JUMPDEST SWAP2 POP PUSH2 0x5DD DUP3 DUP5 PUSH2 0x5B0 JUMP JUMPDEST PUSH1 0x20 DUP3 ADD SWAP2 POP DUP2 SWAP1 POP SWAP3 SWAP2 POP POP JUMP JUMPDEST PUSH0 DUP3 DUP3 MSTORE PUSH1 0x20 DUP3 ADD SWAP1 POP SWAP3 SWAP2 POP POP JUMP JUMPDEST PUSH32 0x696E76616C6964207369676E6174757265206C656E6774680000000000000000 PUSH0 DUP3 ADD MSTORE POP JUMP JUMPDEST PUSH0 PUSH2 0x630 PUSH1 0x18 DUP4 PUSH2 0x5EC JUMP JUMPDEST SWAP2 POP PUSH2 0x63B DUP3 PUSH2 0x5FC JUMP JUMPDEST PUSH1 0x20 DUP3 ADD SWAP1 POP SWAP2 SWAP1 POP JUMP JUMPDEST PUSH0 PUSH1 0x20 DUP3 ADD SWAP1 POP DUP2 DUP2 SUB PUSH0 DUP4 ADD MSTORE PUSH2 0x65D DUP2 PUSH2 0x624 JUMP JUMPDEST SWAP1 POP SWAP2 SWAP1 POP JUMP JUMPDEST PUSH2 0x66D DUP2 PUSH2 0x216 JUMP JUMPDEST DUP3 MSTORE POP POP JUMP JUMPDEST PUSH0 PUSH1 0xFF DUP3 AND SWAP1 POP SWAP2 SWAP1 POP JUMP JUMPDEST PUSH2 0x688 DUP2 PUSH2 0x673 JUMP JUMPDEST DUP3 MSTORE POP POP JUMP JUMPDEST PUSH0 PUSH1 0x80 DUP3 ADD SWAP1 POP PUSH2 0x6A1 PUSH0 DUP4 ADD DUP8 PUSH2 0x664 JUMP JUMPDEST PUSH2 0x6AE PUSH1 0x20 DUP4 ADD DUP7 PUSH2 0x67F JUMP JUMPDEST PUSH2 0x6BB PUSH1 0x40 DUP4 ADD DUP6 PUSH2 0x664 JUMP JUMPDEST PUSH2 0x6C8 PUSH1 0x60 DUP4 ADD DUP5 PUSH2 0x664 JUMP JUMPDEST SWAP6 SWAP5 POP POP POP POP POP JUMP INVALID LOG2 PUSH5 0x6970667358 0x22 SLT KECCAK256 0xAA BYTE 0xFB SWAP9 BLOBBASEFEE 0x28 0x25 TSTORE 0x26 0xB1 0xA6 RETURNDATASIZE 0xAD 0x24 MULMOD PUSH11 0x9250509F598020669B02EF PREVRANDAO 0xC7 0x1E SAR PUSH3 0x64736F PUSH13 0x634300081A0033000000000000 "
		},
		"gasEstimates": {
			"creation": {
				"codeDepositCost": "359800",
				"executionCost": "422",
				"totalCost": "360222"
			},
			"external": {
				"recoverSigner(bytes32,bytes)": "infinite",
				"toEthSignedMessageHash(bytes32)": "infinite",
				"verify(bytes32,bytes,address)": "infinite"
			}
		},
		"methodIdentifiers": {
			"recoverSigner(bytes32,bytes)": "97aba7f9",
			"toEthSignedMessageHash(bytes32)": "918a15cf",
			"verify(bytes32,bytes,address)": "823ac373"
		}
	},
	"abi": [
		{
			"inputs": [
				{
					"internalType": "bytes32",
					"name": "_msgHash",
					"type": "bytes32"
				},
				{
					"internalType": "bytes",
					"name": "_signature",
					"type": "bytes"
				}
			],
			"name": "recoverSigner",
			"outputs": [
				{
					"internalType": "address",
					"name": "",
					"type": "address"
				}
			],
			"stateMutability": "pure",
			"type": "function"
		},
		{
			"inputs": [
				{
					"internalType": "bytes32",
					"name": "hash",
					"type": "bytes32"
				}
			],
			"name": "toEthSignedMessageHash",
			"outputs": [
				{
					"internalType": "bytes32",
					"name": "",
					"type": "bytes32"
				}
			],
			"stateMutability": "pure",
			"type": "function"
		},
		{
			"inputs": [
				{
					"internalType": "bytes32",
					"name": "_msgHash",
					"type": "bytes32"
				},
				{
					"internalType": "bytes",
					"name": "_signature",
					"type": "bytes"
				},
				{
					"internalType": "address",
					"name": "_signer",
					"type": "address"
				}
			],
			"name": "verify",
			"outputs": [
				{
					"internalType": "bool",
					"name": "",
					"type": "bool"
				}
			],
			"stateMutability": "pure",
			"type": "function"
		}
	]
}