{
	"contracts/Airdrop/Airdrop.sol": {
		"Airdrop": {
			"abi": [
				{
					"inputs": [
						{
							"internalType": "uint256[]",
							"name": "_arr",
							"type": "uint256[]"
						}
					],
					"name": "getSum",
					"outputs": [
						{
							"internalType": "uint256",
							"name": "sum",
							"type": "uint256"
						}
					],
					"stateMutability": "pure",
					"type": "function"
				},
				{
					"inputs": [
						{
							"internalType": "address",
							"name": "_token",
							"type": "address"
						},
						{
							"internalType": "address[]",
							"name": "_addresses",
							"type": "address[]"
						},
						{
							"internalType": "uint256[]",
							"name": "_amounts",
							"type": "uint256[]"
						}
					],
					"name": "multiTransferToken",
					"outputs": [],
					"stateMutability": "nonpayable",
					"type": "function"
				}
			],
			"devdoc": {
				"kind": "dev",
				"methods": {},
				"version": 1
			},
			"evm": {
				"assembly": "    /* \"contracts/Airdrop/Airdrop.sol\":126:1401  contract Airdrop {... */\n  mstore(0x40, 0x80)\n  callvalue\n  dup1\n  iszero\n  tag_1\n  jumpi\n  0x00\n  dup1\n  revert\ntag_1:\n  pop\n  dataSize(sub_0)\n  dup1\n  dataOffset(sub_0)\n  0x00\n  codecopy\n  0x00\n  return\nstop\n\nsub_0: assembly {\n        /* \"contracts/Airdrop/Airdrop.sol\":126:1401  contract Airdrop {... */\n      mstore(0x40, 0x80)\n      callvalue\n      dup1\n      iszero\n      tag_1\n      jumpi\n      0x00\n      dup1\n      revert\n    tag_1:\n      pop\n      jumpi(tag_2, lt(calldatasize, 0x04))\n      shr(0xe0, calldataload(0x00))\n      dup1\n      0x41ed24a2\n      eq\n      tag_3\n      jumpi\n      dup1\n      0xccb8c1e0\n      eq\n      tag_4\n      jumpi\n    tag_2:\n      0x00\n      dup1\n      revert\n        /* \"contracts/Airdrop/Airdrop.sol\":418:1226  function multiTransferToken (... */\n    tag_3:\n      tag_5\n      0x04\n      dup1\n      calldatasize\n      sub\n      dup2\n      add\n      swap1\n      tag_6\n      swap2\n      swap1\n      tag_7\n      jump\t// in\n    tag_6:\n      tag_8\n      jump\t// in\n    tag_5:\n      stop\n        /* \"contracts/Airdrop/Airdrop.sol\":1232:1398  function getSum(uint256[] calldata _arr) public pure returns (uint sum) {... */\n    tag_4:\n      tag_9\n      0x04\n      dup1\n      calldatasize\n      sub\n      dup2\n      add\n      swap1\n      tag_10\n      swap2\n      swap1\n      tag_11\n      jump\t// in\n    tag_10:\n      tag_12\n      jump\t// in\n    tag_9:\n      mload(0x40)\n      tag_13\n      swap2\n      swap1\n      tag_14\n      jump\t// in\n    tag_13:\n      mload(0x40)\n      dup1\n      swap2\n      sub\n      swap1\n      return\n        /* \"contracts/Airdrop/Airdrop.sol\":418:1226  function multiTransferToken (... */\n    tag_8:\n        /* \"contracts/Airdrop/Airdrop.sol\":676:684  _amounts */\n      dup2\n      dup2\n        /* \"contracts/Airdrop/Airdrop.sol\":676:691  _amounts.length */\n      swap1\n      pop\n        /* \"contracts/Airdrop/Airdrop.sol\":655:665  _addresses */\n      dup5\n      dup5\n        /* \"contracts/Airdrop/Airdrop.sol\":655:672  _addresses.length */\n      swap1\n      pop\n        /* \"contracts/Airdrop/Airdrop.sol\":655:691  _addresses.length == _amounts.length */\n      eq\n        /* \"contracts/Airdrop/Airdrop.sol\":633:758  require(... */\n      tag_16\n      jumpi\n      mload(0x40)\n      0x08c379a000000000000000000000000000000000000000000000000000000000\n      dup2\n      mstore\n      0x04\n      add\n      tag_17\n      swap1\n      tag_18\n      jump\t// in\n    tag_17:\n      mload(0x40)\n      dup1\n      swap2\n      sub\n      swap1\n      revert\n    tag_16:\n        /* \"contracts/Airdrop/Airdrop.sol\":779:791  IERC20 token */\n      0x00\n        /* \"contracts/Airdrop/Airdrop.sol\":801:807  _token */\n      dup6\n        /* \"contracts/Airdrop/Airdrop.sol\":779:808  IERC20 token = IERC20(_token) */\n      swap1\n      pop\n        /* \"contracts/Airdrop/Airdrop.sol\":860:876  uint _amountsSum */\n      0x00\n        /* \"contracts/Airdrop/Airdrop.sol\":879:895  getSum(_amounts) */\n      tag_19\n        /* \"contracts/Airdrop/Airdrop.sol\":886:894  _amounts */\n      dup5\n      dup5\n        /* \"contracts/Airdrop/Airdrop.sol\":879:885  getSum */\n      tag_12\n        /* \"contracts/Airdrop/Airdrop.sol\":879:895  getSum(_amounts) */\n      jump\t// in\n    tag_19:\n        /* \"contracts/Airdrop/Airdrop.sol\":860:895  uint _amountsSum = getSum(_amounts) */\n      swap1\n      pop\n        /* \"contracts/Airdrop/Airdrop.sol\":1000:1011  _amountsSum */\n      dup1\n        /* \"contracts/Airdrop/Airdrop.sol\":954:959  token */\n      dup3\n        /* \"contracts/Airdrop/Airdrop.sol\":954:969  token.allowance */\n      0xffffffffffffffffffffffffffffffffffffffff\n      and\n      0xdd62ed3e\n        /* \"contracts/Airdrop/Airdrop.sol\":970:980  msg.sender */\n      caller\n        /* \"contracts/Airdrop/Airdrop.sol\":990:994  this */\n      address\n        /* \"contracts/Airdrop/Airdrop.sol\":954:996  token.allowance(msg.sender, address(this)) */\n      mload(0x40)\n      dup4\n      0xffffffff\n      and\n      0xe0\n      shl\n      dup2\n      mstore\n      0x04\n      add\n      tag_20\n      swap3\n      swap2\n      swap1\n      tag_21\n      jump\t// in\n    tag_20:\n      0x20\n      mload(0x40)\n      dup1\n      dup4\n      sub\n      dup2\n      dup7\n      gas\n      staticcall\n      iszero\n      dup1\n      iszero\n      tag_23\n      jumpi\n      returndatasize\n      0x00\n      dup1\n      returndatacopy\n      revert(0x00, returndatasize)\n    tag_23:\n      pop\n      pop\n      pop\n      pop\n      mload(0x40)\n      returndatasize\n      not(0x1f)\n      0x1f\n      dup3\n      add\n      and\n      dup3\n      add\n      dup1\n      0x40\n      mstore\n      pop\n      dup2\n      add\n      swap1\n      tag_24\n      swap2\n      swap1\n      tag_25\n      jump\t// in\n    tag_24:\n        /* \"contracts/Airdrop/Airdrop.sol\":954:1011  token.allowance(msg.sender, address(this)) >= _amountsSum */\n      lt\n      iszero\n        /* \"contracts/Airdrop/Airdrop.sol\":946:1062  require(token.allowance(msg.sender, address(this)) >= _amountsSum,... */\n      tag_26\n      jumpi\n      mload(0x40)\n      0x08c379a000000000000000000000000000000000000000000000000000000000\n      dup2\n      mstore\n      0x04\n      add\n      tag_27\n      swap1\n      tag_28\n      jump\t// in\n    tag_27:\n      mload(0x40)\n      dup1\n      swap2\n      sub\n      swap1\n      revert\n    tag_26:\n        /* \"contracts/Airdrop/Airdrop.sol\":1078:1085  uint8 i */\n      0x00\n        /* \"contracts/Airdrop/Airdrop.sol\":1073:1213  for (uint8 i; i < _addresses.length;i++) {... */\n    tag_29:\n        /* \"contracts/Airdrop/Airdrop.sol\":1091:1101  _addresses */\n      dup7\n      dup7\n        /* \"contracts/Airdrop/Airdrop.sol\":1091:1108  _addresses.length */\n      swap1\n      pop\n        /* \"contracts/Airdrop/Airdrop.sol\":1087:1088  i */\n      dup2\n        /* \"contracts/Airdrop/Airdrop.sol\":1087:1108  i < _addresses.length */\n      0xff\n      and\n      lt\n        /* \"contracts/Airdrop/Airdrop.sol\":1073:1213  for (uint8 i; i < _addresses.length;i++) {... */\n      iszero\n      tag_30\n      jumpi\n        /* \"contracts/Airdrop/Airdrop.sol\":1129:1134  token */\n      dup3\n        /* \"contracts/Airdrop/Airdrop.sol\":1129:1147  token.transferFrom */\n      0xffffffffffffffffffffffffffffffffffffffff\n      and\n      0x23b872dd\n        /* \"contracts/Airdrop/Airdrop.sol\":1148:1158  msg.sender */\n      caller\n        /* \"contracts/Airdrop/Airdrop.sol\":1160:1170  _addresses */\n      dup10\n      dup10\n        /* \"contracts/Airdrop/Airdrop.sol\":1171:1172  i */\n      dup6\n        /* \"contracts/Airdrop/Airdrop.sol\":1160:1173  _addresses[i] */\n      0xff\n      and\n      dup2\n      dup2\n      lt\n      tag_32\n      jumpi\n      tag_33\n      tag_34\n      jump\t// in\n    tag_33:\n    tag_32:\n      swap1\n      pop\n      0x20\n      mul\n      add\n      0x20\n      dup2\n      add\n      swap1\n      tag_35\n      swap2\n      swap1\n      tag_36\n      jump\t// in\n    tag_35:\n        /* \"contracts/Airdrop/Airdrop.sol\":1175:1183  _amounts */\n      dup9\n      dup9\n        /* \"contracts/Airdrop/Airdrop.sol\":1184:1185  i */\n      dup7\n        /* \"contracts/Airdrop/Airdrop.sol\":1175:1186  _amounts[i] */\n      0xff\n      and\n      dup2\n      dup2\n      lt\n      tag_37\n      jumpi\n      tag_38\n      tag_34\n      jump\t// in\n    tag_38:\n    tag_37:\n      swap1\n      pop\n      0x20\n      mul\n      add\n      calldataload\n        /* \"contracts/Airdrop/Airdrop.sol\":1129:1187  token.transferFrom(msg.sender, _addresses[i], _amounts[i]) */\n      mload(0x40)\n      dup5\n      0xffffffff\n      and\n      0xe0\n      shl\n      dup2\n      mstore\n      0x04\n      add\n      tag_39\n      swap4\n      swap3\n      swap2\n      swap1\n      tag_40\n      jump\t// in\n    tag_39:\n      0x20\n      mload(0x40)\n      dup1\n      dup4\n      sub\n      dup2\n      0x00\n      dup8\n      gas\n      call\n      iszero\n      dup1\n      iszero\n      tag_42\n      jumpi\n      returndatasize\n      0x00\n      dup1\n      returndatacopy\n      revert(0x00, returndatasize)\n    tag_42:\n      pop\n      pop\n      pop\n      pop\n      mload(0x40)\n      returndatasize\n      not(0x1f)\n      0x1f\n      dup3\n      add\n      and\n      dup3\n      add\n      dup1\n      0x40\n      mstore\n      pop\n      dup2\n      add\n      swap1\n      tag_43\n      swap2\n      swap1\n      tag_44\n      jump\t// in\n    tag_43:\n      pop\n        /* \"contracts/Airdrop/Airdrop.sol\":1109:1112  i++ */\n      dup1\n      dup1\n      tag_45\n      swap1\n      tag_46\n      jump\t// in\n    tag_45:\n      swap2\n      pop\n      pop\n        /* \"contracts/Airdrop/Airdrop.sol\":1073:1213  for (uint8 i; i < _addresses.length;i++) {... */\n      jump(tag_29)\n    tag_30:\n      pop\n        /* \"contracts/Airdrop/Airdrop.sol\":561:1226  {... */\n      pop\n      pop\n        /* \"contracts/Airdrop/Airdrop.sol\":418:1226  function multiTransferToken (... */\n      pop\n      pop\n      pop\n      pop\n      pop\n      jump\t// out\n        /* \"contracts/Airdrop/Airdrop.sol\":1232:1398  function getSum(uint256[] calldata _arr) public pure returns (uint sum) {... */\n    tag_12:\n        /* \"contracts/Airdrop/Airdrop.sol\":1294:1302  uint sum */\n      0x00\n        /* \"contracts/Airdrop/Airdrop.sol\":1320:1326  uint i */\n      dup1\n        /* \"contracts/Airdrop/Airdrop.sol\":1329:1330  0 */\n      0x00\n        /* \"contracts/Airdrop/Airdrop.sol\":1320:1330  uint i = 0 */\n      swap1\n      pop\n        /* \"contracts/Airdrop/Airdrop.sol\":1315:1391  for (uint i = 0; i < _arr.length; i++) {... */\n    tag_48:\n        /* \"contracts/Airdrop/Airdrop.sol\":1336:1340  _arr */\n      dup4\n      dup4\n        /* \"contracts/Airdrop/Airdrop.sol\":1336:1347  _arr.length */\n      swap1\n      pop\n        /* \"contracts/Airdrop/Airdrop.sol\":1332:1333  i */\n      dup2\n        /* \"contracts/Airdrop/Airdrop.sol\":1332:1347  i < _arr.length */\n      lt\n        /* \"contracts/Airdrop/Airdrop.sol\":1315:1391  for (uint i = 0; i < _arr.length; i++) {... */\n      iszero\n      tag_49\n      jumpi\n        /* \"contracts/Airdrop/Airdrop.sol\":1376:1380  _arr */\n      dup4\n      dup4\n        /* \"contracts/Airdrop/Airdrop.sol\":1381:1382  i */\n      dup3\n        /* \"contracts/Airdrop/Airdrop.sol\":1376:1383  _arr[i] */\n      dup2\n      dup2\n      lt\n      tag_51\n      jumpi\n      tag_52\n      tag_34\n      jump\t// in\n    tag_52:\n    tag_51:\n      swap1\n      pop\n      0x20\n      mul\n      add\n      calldataload\n        /* \"contracts/Airdrop/Airdrop.sol\":1369:1383  sum += _arr[i] */\n      dup3\n      tag_53\n      swap2\n      swap1\n      tag_54\n      jump\t// in\n    tag_53:\n      swap2\n      pop\n        /* \"contracts/Airdrop/Airdrop.sol\":1349:1352  i++ */\n      dup1\n      dup1\n      0x01\n      add\n      swap2\n      pop\n      pop\n        /* \"contracts/Airdrop/Airdrop.sol\":1315:1391  for (uint i = 0; i < _arr.length; i++) {... */\n      jump(tag_48)\n    tag_49:\n      pop\n        /* \"contracts/Airdrop/Airdrop.sol\":1232:1398  function getSum(uint256[] calldata _arr) public pure returns (uint sum) {... */\n      swap3\n      swap2\n      pop\n      pop\n      jump\t// out\n        /* \"#utility.yul\":88:205   */\n    tag_56:\n        /* \"#utility.yul\":197:198   */\n      0x00\n        /* \"#utility.yul\":194:195   */\n      dup1\n        /* \"#utility.yul\":187:199   */\n      revert\n        /* \"#utility.yul\":211:328   */\n    tag_57:\n        /* \"#utility.yul\":320:321   */\n      0x00\n        /* \"#utility.yul\":317:318   */\n      dup1\n        /* \"#utility.yul\":310:322   */\n      revert\n        /* \"#utility.yul\":334:460   */\n    tag_58:\n        /* \"#utility.yul\":371:378   */\n      0x00\n        /* \"#utility.yul\":411:453   */\n      0xffffffffffffffffffffffffffffffffffffffff\n        /* \"#utility.yul\":404:409   */\n      dup3\n        /* \"#utility.yul\":400:454   */\n      and\n        /* \"#utility.yul\":389:454   */\n      swap1\n      pop\n        /* \"#utility.yul\":334:460   */\n      swap2\n      swap1\n      pop\n      jump\t// out\n        /* \"#utility.yul\":466:562   */\n    tag_59:\n        /* \"#utility.yul\":503:510   */\n      0x00\n        /* \"#utility.yul\":532:556   */\n      tag_88\n        /* \"#utility.yul\":550:555   */\n      dup3\n        /* \"#utility.yul\":532:556   */\n      tag_58\n      jump\t// in\n    tag_88:\n        /* \"#utility.yul\":521:556   */\n      swap1\n      pop\n        /* \"#utility.yul\":466:562   */\n      swap2\n      swap1\n      pop\n      jump\t// out\n        /* \"#utility.yul\":568:690   */\n    tag_60:\n        /* \"#utility.yul\":641:665   */\n      tag_90\n        /* \"#utility.yul\":659:664   */\n      dup2\n        /* \"#utility.yul\":641:665   */\n      tag_59\n      jump\t// in\n    tag_90:\n        /* \"#utility.yul\":634:639   */\n      dup2\n        /* \"#utility.yul\":631:666   */\n      eq\n        /* \"#utility.yul\":621:684   */\n      tag_91\n      jumpi\n        /* \"#utility.yul\":680:681   */\n      0x00\n        /* \"#utility.yul\":677:678   */\n      dup1\n        /* \"#utility.yul\":670:682   */\n      revert\n        /* \"#utility.yul\":621:684   */\n    tag_91:\n        /* \"#utility.yul\":568:690   */\n      pop\n      jump\t// out\n        /* \"#utility.yul\":696:835   */\n    tag_61:\n        /* \"#utility.yul\":742:747   */\n      0x00\n        /* \"#utility.yul\":780:786   */\n      dup2\n        /* \"#utility.yul\":767:787   */\n      calldataload\n        /* \"#utility.yul\":758:787   */\n      swap1\n      pop\n        /* \"#utility.yul\":796:829   */\n      tag_93\n        /* \"#utility.yul\":823:828   */\n      dup2\n        /* \"#utility.yul\":796:829   */\n      tag_60\n      jump\t// in\n    tag_93:\n        /* \"#utility.yul\":696:835   */\n      swap3\n      swap2\n      pop\n      pop\n      jump\t// out\n        /* \"#utility.yul\":841:958   */\n    tag_62:\n        /* \"#utility.yul\":950:951   */\n      0x00\n        /* \"#utility.yul\":947:948   */\n      dup1\n        /* \"#utility.yul\":940:952   */\n      revert\n        /* \"#utility.yul\":964:1081   */\n    tag_63:\n        /* \"#utility.yul\":1073:1074   */\n      0x00\n        /* \"#utility.yul\":1070:1071   */\n      dup1\n        /* \"#utility.yul\":1063:1075   */\n      revert\n        /* \"#utility.yul\":1087:1204   */\n    tag_64:\n        /* \"#utility.yul\":1196:1197   */\n      0x00\n        /* \"#utility.yul\":1193:1194   */\n      dup1\n        /* \"#utility.yul\":1186:1198   */\n      revert\n        /* \"#utility.yul\":1227:1795   */\n    tag_65:\n        /* \"#utility.yul\":1300:1308   */\n      0x00\n        /* \"#utility.yul\":1310:1316   */\n      dup1\n        /* \"#utility.yul\":1360:1363   */\n      dup4\n        /* \"#utility.yul\":1353:1357   */\n      0x1f\n        /* \"#utility.yul\":1345:1351   */\n      dup5\n        /* \"#utility.yul\":1341:1358   */\n      add\n        /* \"#utility.yul\":1337:1364   */\n      slt\n        /* \"#utility.yul\":1327:1449   */\n      tag_98\n      jumpi\n        /* \"#utility.yul\":1368:1447   */\n      tag_99\n      tag_62\n      jump\t// in\n    tag_99:\n        /* \"#utility.yul\":1327:1449   */\n    tag_98:\n        /* \"#utility.yul\":1481:1487   */\n      dup3\n        /* \"#utility.yul\":1468:1488   */\n      calldataload\n        /* \"#utility.yul\":1458:1488   */\n      swap1\n      pop\n        /* \"#utility.yul\":1511:1529   */\n      0xffffffffffffffff\n        /* \"#utility.yul\":1503:1509   */\n      dup2\n        /* \"#utility.yul\":1500:1530   */\n      gt\n        /* \"#utility.yul\":1497:1614   */\n      iszero\n      tag_100\n      jumpi\n        /* \"#utility.yul\":1533:1612   */\n      tag_101\n      tag_63\n      jump\t// in\n    tag_101:\n        /* \"#utility.yul\":1497:1614   */\n    tag_100:\n        /* \"#utility.yul\":1647:1651   */\n      0x20\n        /* \"#utility.yul\":1639:1645   */\n      dup4\n        /* \"#utility.yul\":1635:1652   */\n      add\n        /* \"#utility.yul\":1623:1652   */\n      swap2\n      pop\n        /* \"#utility.yul\":1701:1704   */\n      dup4\n        /* \"#utility.yul\":1693:1697   */\n      0x20\n        /* \"#utility.yul\":1685:1691   */\n      dup3\n        /* \"#utility.yul\":1681:1698   */\n      mul\n        /* \"#utility.yul\":1671:1679   */\n      dup4\n        /* \"#utility.yul\":1667:1699   */\n      add\n        /* \"#utility.yul\":1664:1705   */\n      gt\n        /* \"#utility.yul\":1661:1789   */\n      iszero\n      tag_102\n      jumpi\n        /* \"#utility.yul\":1708:1787   */\n      tag_103\n      tag_64\n      jump\t// in\n    tag_103:\n        /* \"#utility.yul\":1661:1789   */\n    tag_102:\n        /* \"#utility.yul\":1227:1795   */\n      swap3\n      pop\n      swap3\n      swap1\n      pop\n      jump\t// out\n        /* \"#utility.yul\":1818:2386   */\n    tag_66:\n        /* \"#utility.yul\":1891:1899   */\n      0x00\n        /* \"#utility.yul\":1901:1907   */\n      dup1\n        /* \"#utility.yul\":1951:1954   */\n      dup4\n        /* \"#utility.yul\":1944:1948   */\n      0x1f\n        /* \"#utility.yul\":1936:1942   */\n      dup5\n        /* \"#utility.yul\":1932:1949   */\n      add\n        /* \"#utility.yul\":1928:1955   */\n      slt\n        /* \"#utility.yul\":1918:2040   */\n      tag_105\n      jumpi\n        /* \"#utility.yul\":1959:2038   */\n      tag_106\n      tag_62\n      jump\t// in\n    tag_106:\n        /* \"#utility.yul\":1918:2040   */\n    tag_105:\n        /* \"#utility.yul\":2072:2078   */\n      dup3\n        /* \"#utility.yul\":2059:2079   */\n      calldataload\n        /* \"#utility.yul\":2049:2079   */\n      swap1\n      pop\n        /* \"#utility.yul\":2102:2120   */\n      0xffffffffffffffff\n        /* \"#utility.yul\":2094:2100   */\n      dup2\n        /* \"#utility.yul\":2091:2121   */\n      gt\n        /* \"#utility.yul\":2088:2205   */\n      iszero\n      tag_107\n      jumpi\n        /* \"#utility.yul\":2124:2203   */\n      tag_108\n      tag_63\n      jump\t// in\n    tag_108:\n        /* \"#utility.yul\":2088:2205   */\n    tag_107:\n        /* \"#utility.yul\":2238:2242   */\n      0x20\n        /* \"#utility.yul\":2230:2236   */\n      dup4\n        /* \"#utility.yul\":2226:2243   */\n      add\n        /* \"#utility.yul\":2214:2243   */\n      swap2\n      pop\n        /* \"#utility.yul\":2292:2295   */\n      dup4\n        /* \"#utility.yul\":2284:2288   */\n      0x20\n        /* \"#utility.yul\":2276:2282   */\n      dup3\n        /* \"#utility.yul\":2272:2289   */\n      mul\n        /* \"#utility.yul\":2262:2270   */\n      dup4\n        /* \"#utility.yul\":2258:2290   */\n      add\n        /* \"#utility.yul\":2255:2296   */\n      gt\n        /* \"#utility.yul\":2252:2380   */\n      iszero\n      tag_109\n      jumpi\n        /* \"#utility.yul\":2299:2378   */\n      tag_110\n      tag_64\n      jump\t// in\n    tag_110:\n        /* \"#utility.yul\":2252:2380   */\n    tag_109:\n        /* \"#utility.yul\":1818:2386   */\n      swap3\n      pop\n      swap3\n      swap1\n      pop\n      jump\t// out\n        /* \"#utility.yul\":2392:3471   */\n    tag_7:\n        /* \"#utility.yul\":2523:2529   */\n      0x00\n        /* \"#utility.yul\":2531:2537   */\n      dup1\n        /* \"#utility.yul\":2539:2545   */\n      0x00\n        /* \"#utility.yul\":2547:2553   */\n      dup1\n        /* \"#utility.yul\":2555:2561   */\n      0x00\n        /* \"#utility.yul\":2604:2606   */\n      0x60\n        /* \"#utility.yul\":2592:2601   */\n      dup7\n        /* \"#utility.yul\":2583:2590   */\n      dup9\n        /* \"#utility.yul\":2579:2602   */\n      sub\n        /* \"#utility.yul\":2575:2607   */\n      slt\n        /* \"#utility.yul\":2572:2691   */\n      iszero\n      tag_112\n      jumpi\n        /* \"#utility.yul\":2610:2689   */\n      tag_113\n      tag_56\n      jump\t// in\n    tag_113:\n        /* \"#utility.yul\":2572:2691   */\n    tag_112:\n        /* \"#utility.yul\":2730:2731   */\n      0x00\n        /* \"#utility.yul\":2755:2808   */\n      tag_114\n        /* \"#utility.yul\":2800:2807   */\n      dup9\n        /* \"#utility.yul\":2791:2797   */\n      dup3\n        /* \"#utility.yul\":2780:2789   */\n      dup10\n        /* \"#utility.yul\":2776:2798   */\n      add\n        /* \"#utility.yul\":2755:2808   */\n      tag_61\n      jump\t// in\n    tag_114:\n        /* \"#utility.yul\":2745:2808   */\n      swap6\n      pop\n        /* \"#utility.yul\":2701:2818   */\n      pop\n        /* \"#utility.yul\":2885:2887   */\n      0x20\n        /* \"#utility.yul\":2874:2883   */\n      dup7\n        /* \"#utility.yul\":2870:2888   */\n      add\n        /* \"#utility.yul\":2857:2889   */\n      calldataload\n        /* \"#utility.yul\":2916:2934   */\n      0xffffffffffffffff\n        /* \"#utility.yul\":2908:2914   */\n      dup2\n        /* \"#utility.yul\":2905:2935   */\n      gt\n        /* \"#utility.yul\":2902:3019   */\n      iszero\n      tag_115\n      jumpi\n        /* \"#utility.yul\":2938:3017   */\n      tag_116\n      tag_57\n      jump\t// in\n    tag_116:\n        /* \"#utility.yul\":2902:3019   */\n    tag_115:\n        /* \"#utility.yul\":3051:3131   */\n      tag_117\n        /* \"#utility.yul\":3123:3130   */\n      dup9\n        /* \"#utility.yul\":3114:3120   */\n      dup3\n        /* \"#utility.yul\":3103:3112   */\n      dup10\n        /* \"#utility.yul\":3099:3121   */\n      add\n        /* \"#utility.yul\":3051:3131   */\n      tag_65\n      jump\t// in\n    tag_117:\n        /* \"#utility.yul\":3033:3131   */\n      swap5\n      pop\n      swap5\n      pop\n        /* \"#utility.yul\":2828:3141   */\n      pop\n        /* \"#utility.yul\":3208:3210   */\n      0x40\n        /* \"#utility.yul\":3197:3206   */\n      dup7\n        /* \"#utility.yul\":3193:3211   */\n      add\n        /* \"#utility.yul\":3180:3212   */\n      calldataload\n        /* \"#utility.yul\":3239:3257   */\n      0xffffffffffffffff\n        /* \"#utility.yul\":3231:3237   */\n      dup2\n        /* \"#utility.yul\":3228:3258   */\n      gt\n        /* \"#utility.yul\":3225:3342   */\n      iszero\n      tag_118\n      jumpi\n        /* \"#utility.yul\":3261:3340   */\n      tag_119\n      tag_57\n      jump\t// in\n    tag_119:\n        /* \"#utility.yul\":3225:3342   */\n    tag_118:\n        /* \"#utility.yul\":3374:3454   */\n      tag_120\n        /* \"#utility.yul\":3446:3453   */\n      dup9\n        /* \"#utility.yul\":3437:3443   */\n      dup3\n        /* \"#utility.yul\":3426:3435   */\n      dup10\n        /* \"#utility.yul\":3422:3444   */\n      add\n        /* \"#utility.yul\":3374:3454   */\n      tag_66\n      jump\t// in\n    tag_120:\n        /* \"#utility.yul\":3356:3454   */\n      swap3\n      pop\n      swap3\n      pop\n        /* \"#utility.yul\":3151:3464   */\n      pop\n        /* \"#utility.yul\":2392:3471   */\n      swap3\n      swap6\n      pop\n      swap3\n      swap6\n      swap1\n      swap4\n      pop\n      jump\t// out\n        /* \"#utility.yul\":3477:4036   */\n    tag_11:\n        /* \"#utility.yul\":3563:3569   */\n      0x00\n        /* \"#utility.yul\":3571:3577   */\n      dup1\n        /* \"#utility.yul\":3620:3622   */\n      0x20\n        /* \"#utility.yul\":3608:3617   */\n      dup4\n        /* \"#utility.yul\":3599:3606   */\n      dup6\n        /* \"#utility.yul\":3595:3618   */\n      sub\n        /* \"#utility.yul\":3591:3623   */\n      slt\n        /* \"#utility.yul\":3588:3707   */\n      iszero\n      tag_122\n      jumpi\n        /* \"#utility.yul\":3626:3705   */\n      tag_123\n      tag_56\n      jump\t// in\n    tag_123:\n        /* \"#utility.yul\":3588:3707   */\n    tag_122:\n        /* \"#utility.yul\":3774:3775   */\n      0x00\n        /* \"#utility.yul\":3763:3772   */\n      dup4\n        /* \"#utility.yul\":3759:3776   */\n      add\n        /* \"#utility.yul\":3746:3777   */\n      calldataload\n        /* \"#utility.yul\":3804:3822   */\n      0xffffffffffffffff\n        /* \"#utility.yul\":3796:3802   */\n      dup2\n        /* \"#utility.yul\":3793:3823   */\n      gt\n        /* \"#utility.yul\":3790:3907   */\n      iszero\n      tag_124\n      jumpi\n        /* \"#utility.yul\":3826:3905   */\n      tag_125\n      tag_57\n      jump\t// in\n    tag_125:\n        /* \"#utility.yul\":3790:3907   */\n    tag_124:\n        /* \"#utility.yul\":3939:4019   */\n      tag_126\n        /* \"#utility.yul\":4011:4018   */\n      dup6\n        /* \"#utility.yul\":4002:4008   */\n      dup3\n        /* \"#utility.yul\":3991:4000   */\n      dup7\n        /* \"#utility.yul\":3987:4009   */\n      add\n        /* \"#utility.yul\":3939:4019   */\n      tag_66\n      jump\t// in\n    tag_126:\n        /* \"#utility.yul\":3921:4019   */\n      swap3\n      pop\n      swap3\n      pop\n        /* \"#utility.yul\":3717:4029   */\n      pop\n        /* \"#utility.yul\":3477:4036   */\n      swap3\n      pop\n      swap3\n      swap1\n      pop\n      jump\t// out\n        /* \"#utility.yul\":4042:4119   */\n    tag_67:\n        /* \"#utility.yul\":4079:4086   */\n      0x00\n        /* \"#utility.yul\":4108:4113   */\n      dup2\n        /* \"#utility.yul\":4097:4113   */\n      swap1\n      pop\n        /* \"#utility.yul\":4042:4119   */\n      swap2\n      swap1\n      pop\n      jump\t// out\n        /* \"#utility.yul\":4125:4243   */\n    tag_68:\n        /* \"#utility.yul\":4212:4236   */\n      tag_129\n        /* \"#utility.yul\":4230:4235   */\n      dup2\n        /* \"#utility.yul\":4212:4236   */\n      tag_67\n      jump\t// in\n    tag_129:\n        /* \"#utility.yul\":4207:4210   */\n      dup3\n        /* \"#utility.yul\":4200:4237   */\n      mstore\n        /* \"#utility.yul\":4125:4243   */\n      pop\n      pop\n      jump\t// out\n        /* \"#utility.yul\":4249:4471   */\n    tag_14:\n        /* \"#utility.yul\":4342:4346   */\n      0x00\n        /* \"#utility.yul\":4380:4382   */\n      0x20\n        /* \"#utility.yul\":4369:4378   */\n      dup3\n        /* \"#utility.yul\":4365:4383   */\n      add\n        /* \"#utility.yul\":4357:4383   */\n      swap1\n      pop\n        /* \"#utility.yul\":4393:4464   */\n      tag_131\n        /* \"#utility.yul\":4461:4462   */\n      0x00\n        /* \"#utility.yul\":4450:4459   */\n      dup4\n        /* \"#utility.yul\":4446:4463   */\n      add\n        /* \"#utility.yul\":4437:4443   */\n      dup5\n        /* \"#utility.yul\":4393:4464   */\n      tag_68\n      jump\t// in\n    tag_131:\n        /* \"#utility.yul\":4249:4471   */\n      swap3\n      swap2\n      pop\n      pop\n      jump\t// out\n        /* \"#utility.yul\":4477:4646   */\n    tag_69:\n        /* \"#utility.yul\":4561:4572   */\n      0x00\n        /* \"#utility.yul\":4595:4601   */\n      dup3\n        /* \"#utility.yul\":4590:4593   */\n      dup3\n        /* \"#utility.yul\":4583:4602   */\n      mstore\n        /* \"#utility.yul\":4635:4639   */\n      0x20\n        /* \"#utility.yul\":4630:4633   */\n      dup3\n        /* \"#utility.yul\":4626:4640   */\n      add\n        /* \"#utility.yul\":4611:4640   */\n      swap1\n      pop\n        /* \"#utility.yul\":4477:4646   */\n      swap3\n      swap2\n      pop\n      pop\n      jump\t// out\n        /* \"#utility.yul\":4652:4882   */\n    tag_70:\n        /* \"#utility.yul\":4792:4826   */\n      0x4c656e67746873206f662041646472657373657320416e64204163636f756e74\n        /* \"#utility.yul\":4788:4789   */\n      0x00\n        /* \"#utility.yul\":4780:4786   */\n      dup3\n        /* \"#utility.yul\":4776:4790   */\n      add\n        /* \"#utility.yul\":4769:4827   */\n      mstore\n        /* \"#utility.yul\":4861:4874   */\n      0x20204e6f7420455155414c000000000000000000000000000000000000000000\n        /* \"#utility.yul\":4856:4858   */\n      0x20\n        /* \"#utility.yul\":4848:4854   */\n      dup3\n        /* \"#utility.yul\":4844:4859   */\n      add\n        /* \"#utility.yul\":4837:4875   */\n      mstore\n        /* \"#utility.yul\":4652:4882   */\n      pop\n      jump\t// out\n        /* \"#utility.yul\":4888:5254   */\n    tag_71:\n        /* \"#utility.yul\":5030:5033   */\n      0x00\n        /* \"#utility.yul\":5051:5118   */\n      tag_135\n        /* \"#utility.yul\":5115:5117   */\n      0x2b\n        /* \"#utility.yul\":5110:5113   */\n      dup4\n        /* \"#utility.yul\":5051:5118   */\n      tag_69\n      jump\t// in\n    tag_135:\n        /* \"#utility.yul\":5044:5118   */\n      swap2\n      pop\n        /* \"#utility.yul\":5127:5220   */\n      tag_136\n        /* \"#utility.yul\":5216:5219   */\n      dup3\n        /* \"#utility.yul\":5127:5220   */\n      tag_70\n      jump\t// in\n    tag_136:\n        /* \"#utility.yul\":5245:5247   */\n      0x40\n        /* \"#utility.yul\":5240:5243   */\n      dup3\n        /* \"#utility.yul\":5236:5248   */\n      add\n        /* \"#utility.yul\":5229:5248   */\n      swap1\n      pop\n        /* \"#utility.yul\":4888:5254   */\n      swap2\n      swap1\n      pop\n      jump\t// out\n        /* \"#utility.yul\":5260:5679   */\n    tag_18:\n        /* \"#utility.yul\":5426:5430   */\n      0x00\n        /* \"#utility.yul\":5464:5466   */\n      0x20\n        /* \"#utility.yul\":5453:5462   */\n      dup3\n        /* \"#utility.yul\":5449:5467   */\n      add\n        /* \"#utility.yul\":5441:5467   */\n      swap1\n      pop\n        /* \"#utility.yul\":5513:5522   */\n      dup2\n        /* \"#utility.yul\":5507:5511   */\n      dup2\n        /* \"#utility.yul\":5503:5523   */\n      sub\n        /* \"#utility.yul\":5499:5500   */\n      0x00\n        /* \"#utility.yul\":5488:5497   */\n      dup4\n        /* \"#utility.yul\":5484:5501   */\n      add\n        /* \"#utility.yul\":5477:5524   */\n      mstore\n        /* \"#utility.yul\":5541:5672   */\n      tag_138\n        /* \"#utility.yul\":5667:5671   */\n      dup2\n        /* \"#utility.yul\":5541:5672   */\n      tag_71\n      jump\t// in\n    tag_138:\n        /* \"#utility.yul\":5533:5672   */\n      swap1\n      pop\n        /* \"#utility.yul\":5260:5679   */\n      swap2\n      swap1\n      pop\n      jump\t// out\n        /* \"#utility.yul\":5685:5803   */\n    tag_72:\n        /* \"#utility.yul\":5772:5796   */\n      tag_140\n        /* \"#utility.yul\":5790:5795   */\n      dup2\n        /* \"#utility.yul\":5772:5796   */\n      tag_59\n      jump\t// in\n    tag_140:\n        /* \"#utility.yul\":5767:5770   */\n      dup3\n        /* \"#utility.yul\":5760:5797   */\n      mstore\n        /* \"#utility.yul\":5685:5803   */\n      pop\n      pop\n      jump\t// out\n        /* \"#utility.yul\":5809:6141   */\n    tag_21:\n        /* \"#utility.yul\":5930:5934   */\n      0x00\n        /* \"#utility.yul\":5968:5970   */\n      0x40\n        /* \"#utility.yul\":5957:5966   */\n      dup3\n        /* \"#utility.yul\":5953:5971   */\n      add\n        /* \"#utility.yul\":5945:5971   */\n      swap1\n      pop\n        /* \"#utility.yul\":5981:6052   */\n      tag_142\n        /* \"#utility.yul\":6049:6050   */\n      0x00\n        /* \"#utility.yul\":6038:6047   */\n      dup4\n        /* \"#utility.yul\":6034:6051   */\n      add\n        /* \"#utility.yul\":6025:6031   */\n      dup6\n        /* \"#utility.yul\":5981:6052   */\n      tag_72\n      jump\t// in\n    tag_142:\n        /* \"#utility.yul\":6062:6134   */\n      tag_143\n        /* \"#utility.yul\":6130:6132   */\n      0x20\n        /* \"#utility.yul\":6119:6128   */\n      dup4\n        /* \"#utility.yul\":6115:6133   */\n      add\n        /* \"#utility.yul\":6106:6112   */\n      dup5\n        /* \"#utility.yul\":6062:6134   */\n      tag_72\n      jump\t// in\n    tag_143:\n        /* \"#utility.yul\":5809:6141   */\n      swap4\n      swap3\n      pop\n      pop\n      pop\n      jump\t// out\n        /* \"#utility.yul\":6147:6269   */\n    tag_73:\n        /* \"#utility.yul\":6220:6244   */\n      tag_145\n        /* \"#utility.yul\":6238:6243   */\n      dup2\n        /* \"#utility.yul\":6220:6244   */\n      tag_67\n      jump\t// in\n    tag_145:\n        /* \"#utility.yul\":6213:6218   */\n      dup2\n        /* \"#utility.yul\":6210:6245   */\n      eq\n        /* \"#utility.yul\":6200:6263   */\n      tag_146\n      jumpi\n        /* \"#utility.yul\":6259:6260   */\n      0x00\n        /* \"#utility.yul\":6256:6257   */\n      dup1\n        /* \"#utility.yul\":6249:6261   */\n      revert\n        /* \"#utility.yul\":6200:6263   */\n    tag_146:\n        /* \"#utility.yul\":6147:6269   */\n      pop\n      jump\t// out\n        /* \"#utility.yul\":6275:6418   */\n    tag_74:\n        /* \"#utility.yul\":6332:6337   */\n      0x00\n        /* \"#utility.yul\":6363:6369   */\n      dup2\n        /* \"#utility.yul\":6357:6370   */\n      mload\n        /* \"#utility.yul\":6348:6370   */\n      swap1\n      pop\n        /* \"#utility.yul\":6379:6412   */\n      tag_148\n        /* \"#utility.yul\":6406:6411   */\n      dup2\n        /* \"#utility.yul\":6379:6412   */\n      tag_73\n      jump\t// in\n    tag_148:\n        /* \"#utility.yul\":6275:6418   */\n      swap3\n      swap2\n      pop\n      pop\n      jump\t// out\n        /* \"#utility.yul\":6424:6775   */\n    tag_25:\n        /* \"#utility.yul\":6494:6500   */\n      0x00\n        /* \"#utility.yul\":6543:6545   */\n      0x20\n        /* \"#utility.yul\":6531:6540   */\n      dup3\n        /* \"#utility.yul\":6522:6529   */\n      dup5\n        /* \"#utility.yul\":6518:6541   */\n      sub\n        /* \"#utility.yul\":6514:6546   */\n      slt\n        /* \"#utility.yul\":6511:6630   */\n      iszero\n      tag_150\n      jumpi\n        /* \"#utility.yul\":6549:6628   */\n      tag_151\n      tag_56\n      jump\t// in\n    tag_151:\n        /* \"#utility.yul\":6511:6630   */\n    tag_150:\n        /* \"#utility.yul\":6669:6670   */\n      0x00\n        /* \"#utility.yul\":6694:6758   */\n      tag_152\n        /* \"#utility.yul\":6750:6757   */\n      dup5\n        /* \"#utility.yul\":6741:6747   */\n      dup3\n        /* \"#utility.yul\":6730:6739   */\n      dup6\n        /* \"#utility.yul\":6726:6748   */\n      add\n        /* \"#utility.yul\":6694:6758   */\n      tag_74\n      jump\t// in\n    tag_152:\n        /* \"#utility.yul\":6684:6758   */\n      swap2\n      pop\n        /* \"#utility.yul\":6640:6768   */\n      pop\n        /* \"#utility.yul\":6424:6775   */\n      swap3\n      swap2\n      pop\n      pop\n      jump\t// out\n        /* \"#utility.yul\":6781:6958   */\n    tag_75:\n        /* \"#utility.yul\":6921:6950   */\n      0x54686520416c6c6f77616e6365204973204e4f5420456e6f7567680000000000\n        /* \"#utility.yul\":6917:6918   */\n      0x00\n        /* \"#utility.yul\":6909:6915   */\n      dup3\n        /* \"#utility.yul\":6905:6919   */\n      add\n        /* \"#utility.yul\":6898:6951   */\n      mstore\n        /* \"#utility.yul\":6781:6958   */\n      pop\n      jump\t// out\n        /* \"#utility.yul\":6964:7330   */\n    tag_76:\n        /* \"#utility.yul\":7106:7109   */\n      0x00\n        /* \"#utility.yul\":7127:7194   */\n      tag_155\n        /* \"#utility.yul\":7191:7193   */\n      0x1b\n        /* \"#utility.yul\":7186:7189   */\n      dup4\n        /* \"#utility.yul\":7127:7194   */\n      tag_69\n      jump\t// in\n    tag_155:\n        /* \"#utility.yul\":7120:7194   */\n      swap2\n      pop\n        /* \"#utility.yul\":7203:7296   */\n      tag_156\n        /* \"#utility.yul\":7292:7295   */\n      dup3\n        /* \"#utility.yul\":7203:7296   */\n      tag_75\n      jump\t// in\n    tag_156:\n        /* \"#utility.yul\":7321:7323   */\n      0x20\n        /* \"#utility.yul\":7316:7319   */\n      dup3\n        /* \"#utility.yul\":7312:7324   */\n      add\n        /* \"#utility.yul\":7305:7324   */\n      swap1\n      pop\n        /* \"#utility.yul\":6964:7330   */\n      swap2\n      swap1\n      pop\n      jump\t// out\n        /* \"#utility.yul\":7336:7755   */\n    tag_28:\n        /* \"#utility.yul\":7502:7506   */\n      0x00\n        /* \"#utility.yul\":7540:7542   */\n      0x20\n        /* \"#utility.yul\":7529:7538   */\n      dup3\n        /* \"#utility.yul\":7525:7543   */\n      add\n        /* \"#utility.yul\":7517:7543   */\n      swap1\n      pop\n        /* \"#utility.yul\":7589:7598   */\n      dup2\n        /* \"#utility.yul\":7583:7587   */\n      dup2\n        /* \"#utility.yul\":7579:7599   */\n      sub\n        /* \"#utility.yul\":7575:7576   */\n      0x00\n        /* \"#utility.yul\":7564:7573   */\n      dup4\n        /* \"#utility.yul\":7560:7577   */\n      add\n        /* \"#utility.yul\":7553:7600   */\n      mstore\n        /* \"#utility.yul\":7617:7748   */\n      tag_158\n        /* \"#utility.yul\":7743:7747   */\n      dup2\n        /* \"#utility.yul\":7617:7748   */\n      tag_76\n      jump\t// in\n    tag_158:\n        /* \"#utility.yul\":7609:7748   */\n      swap1\n      pop\n        /* \"#utility.yul\":7336:7755   */\n      swap2\n      swap1\n      pop\n      jump\t// out\n        /* \"#utility.yul\":7761:7941   */\n    tag_34:\n        /* \"#utility.yul\":7809:7886   */\n      0x4e487b7100000000000000000000000000000000000000000000000000000000\n        /* \"#utility.yul\":7806:7807   */\n      0x00\n        /* \"#utility.yul\":7799:7887   */\n      mstore\n        /* \"#utility.yul\":7906:7910   */\n      0x32\n        /* \"#utility.yul\":7903:7904   */\n      0x04\n        /* \"#utility.yul\":7896:7911   */\n      mstore\n        /* \"#utility.yul\":7930:7934   */\n      0x24\n        /* \"#utility.yul\":7927:7928   */\n      0x00\n        /* \"#utility.yul\":7920:7935   */\n      revert\n        /* \"#utility.yul\":7947:8276   */\n    tag_36:\n        /* \"#utility.yul\":8006:8012   */\n      0x00\n        /* \"#utility.yul\":8055:8057   */\n      0x20\n        /* \"#utility.yul\":8043:8052   */\n      dup3\n        /* \"#utility.yul\":8034:8041   */\n      dup5\n        /* \"#utility.yul\":8030:8053   */\n      sub\n        /* \"#utility.yul\":8026:8058   */\n      slt\n        /* \"#utility.yul\":8023:8142   */\n      iszero\n      tag_161\n      jumpi\n        /* \"#utility.yul\":8061:8140   */\n      tag_162\n      tag_56\n      jump\t// in\n    tag_162:\n        /* \"#utility.yul\":8023:8142   */\n    tag_161:\n        /* \"#utility.yul\":8181:8182   */\n      0x00\n        /* \"#utility.yul\":8206:8259   */\n      tag_163\n        /* \"#utility.yul\":8251:8258   */\n      dup5\n        /* \"#utility.yul\":8242:8248   */\n      dup3\n        /* \"#utility.yul\":8231:8240   */\n      dup6\n        /* \"#utility.yul\":8227:8249   */\n      add\n        /* \"#utility.yul\":8206:8259   */\n      tag_61\n      jump\t// in\n    tag_163:\n        /* \"#utility.yul\":8196:8259   */\n      swap2\n      pop\n        /* \"#utility.yul\":8152:8269   */\n      pop\n        /* \"#utility.yul\":7947:8276   */\n      swap3\n      swap2\n      pop\n      pop\n      jump\t// out\n        /* \"#utility.yul\":8282:8724   */\n    tag_40:\n        /* \"#utility.yul\":8431:8435   */\n      0x00\n        /* \"#utility.yul\":8469:8471   */\n      0x60\n        /* \"#utility.yul\":8458:8467   */\n      dup3\n        /* \"#utility.yul\":8454:8472   */\n      add\n        /* \"#utility.yul\":8446:8472   */\n      swap1\n      pop\n        /* \"#utility.yul\":8482:8553   */\n      tag_165\n        /* \"#utility.yul\":8550:8551   */\n      0x00\n        /* \"#utility.yul\":8539:8548   */\n      dup4\n        /* \"#utility.yul\":8535:8552   */\n      add\n        /* \"#utility.yul\":8526:8532   */\n      dup7\n        /* \"#utility.yul\":8482:8553   */\n      tag_72\n      jump\t// in\n    tag_165:\n        /* \"#utility.yul\":8563:8635   */\n      tag_166\n        /* \"#utility.yul\":8631:8633   */\n      0x20\n        /* \"#utility.yul\":8620:8629   */\n      dup4\n        /* \"#utility.yul\":8616:8634   */\n      add\n        /* \"#utility.yul\":8607:8613   */\n      dup6\n        /* \"#utility.yul\":8563:8635   */\n      tag_72\n      jump\t// in\n    tag_166:\n        /* \"#utility.yul\":8645:8717   */\n      tag_167\n        /* \"#utility.yul\":8713:8715   */\n      0x40\n        /* \"#utility.yul\":8702:8711   */\n      dup4\n        /* \"#utility.yul\":8698:8716   */\n      add\n        /* \"#utility.yul\":8689:8695   */\n      dup5\n        /* \"#utility.yul\":8645:8717   */\n      tag_68\n      jump\t// in\n    tag_167:\n        /* \"#utility.yul\":8282:8724   */\n      swap5\n      swap4\n      pop\n      pop\n      pop\n      pop\n      jump\t// out\n        /* \"#utility.yul\":8730:8820   */\n    tag_77:\n        /* \"#utility.yul\":8764:8771   */\n      0x00\n        /* \"#utility.yul\":8807:8812   */\n      dup2\n        /* \"#utility.yul\":8800:8813   */\n      iszero\n        /* \"#utility.yul\":8793:8814   */\n      iszero\n        /* \"#utility.yul\":8782:8814   */\n      swap1\n      pop\n        /* \"#utility.yul\":8730:8820   */\n      swap2\n      swap1\n      pop\n      jump\t// out\n        /* \"#utility.yul\":8826:8942   */\n    tag_78:\n        /* \"#utility.yul\":8896:8917   */\n      tag_170\n        /* \"#utility.yul\":8911:8916   */\n      dup2\n        /* \"#utility.yul\":8896:8917   */\n      tag_77\n      jump\t// in\n    tag_170:\n        /* \"#utility.yul\":8889:8894   */\n      dup2\n        /* \"#utility.yul\":8886:8918   */\n      eq\n        /* \"#utility.yul\":8876:8936   */\n      tag_171\n      jumpi\n        /* \"#utility.yul\":8932:8933   */\n      0x00\n        /* \"#utility.yul\":8929:8930   */\n      dup1\n        /* \"#utility.yul\":8922:8934   */\n      revert\n        /* \"#utility.yul\":8876:8936   */\n    tag_171:\n        /* \"#utility.yul\":8826:8942   */\n      pop\n      jump\t// out\n        /* \"#utility.yul\":8948:9085   */\n    tag_79:\n        /* \"#utility.yul\":9002:9007   */\n      0x00\n        /* \"#utility.yul\":9033:9039   */\n      dup2\n        /* \"#utility.yul\":9027:9040   */\n      mload\n        /* \"#utility.yul\":9018:9040   */\n      swap1\n      pop\n        /* \"#utility.yul\":9049:9079   */\n      tag_173\n        /* \"#utility.yul\":9073:9078   */\n      dup2\n        /* \"#utility.yul\":9049:9079   */\n      tag_78\n      jump\t// in\n    tag_173:\n        /* \"#utility.yul\":8948:9085   */\n      swap3\n      swap2\n      pop\n      pop\n      jump\t// out\n        /* \"#utility.yul\":9091:9436   */\n    tag_44:\n        /* \"#utility.yul\":9158:9164   */\n      0x00\n        /* \"#utility.yul\":9207:9209   */\n      0x20\n        /* \"#utility.yul\":9195:9204   */\n      dup3\n        /* \"#utility.yul\":9186:9193   */\n      dup5\n        /* \"#utility.yul\":9182:9205   */\n      sub\n        /* \"#utility.yul\":9178:9210   */\n      slt\n        /* \"#utility.yul\":9175:9294   */\n      iszero\n      tag_175\n      jumpi\n        /* \"#utility.yul\":9213:9292   */\n      tag_176\n      tag_56\n      jump\t// in\n    tag_176:\n        /* \"#utility.yul\":9175:9294   */\n    tag_175:\n        /* \"#utility.yul\":9333:9334   */\n      0x00\n        /* \"#utility.yul\":9358:9419   */\n      tag_177\n        /* \"#utility.yul\":9411:9418   */\n      dup5\n        /* \"#utility.yul\":9402:9408   */\n      dup3\n        /* \"#utility.yul\":9391:9400   */\n      dup6\n        /* \"#utility.yul\":9387:9409   */\n      add\n        /* \"#utility.yul\":9358:9419   */\n      tag_79\n      jump\t// in\n    tag_177:\n        /* \"#utility.yul\":9348:9419   */\n      swap2\n      pop\n        /* \"#utility.yul\":9304:9429   */\n      pop\n        /* \"#utility.yul\":9091:9436   */\n      swap3\n      swap2\n      pop\n      pop\n      jump\t// out\n        /* \"#utility.yul\":9442:9622   */\n    tag_80:\n        /* \"#utility.yul\":9490:9567   */\n      0x4e487b7100000000000000000000000000000000000000000000000000000000\n        /* \"#utility.yul\":9487:9488   */\n      0x00\n        /* \"#utility.yul\":9480:9568   */\n      mstore\n        /* \"#utility.yul\":9587:9591   */\n      0x11\n        /* \"#utility.yul\":9584:9585   */\n      0x04\n        /* \"#utility.yul\":9577:9592   */\n      mstore\n        /* \"#utility.yul\":9611:9615   */\n      0x24\n        /* \"#utility.yul\":9608:9609   */\n      0x00\n        /* \"#utility.yul\":9601:9616   */\n      revert\n        /* \"#utility.yul\":9628:9714   */\n    tag_81:\n        /* \"#utility.yul\":9663:9670   */\n      0x00\n        /* \"#utility.yul\":9703:9707   */\n      0xff\n        /* \"#utility.yul\":9696:9701   */\n      dup3\n        /* \"#utility.yul\":9692:9708   */\n      and\n        /* \"#utility.yul\":9681:9708   */\n      swap1\n      pop\n        /* \"#utility.yul\":9628:9714   */\n      swap2\n      swap1\n      pop\n      jump\t// out\n        /* \"#utility.yul\":9720:9887   */\n    tag_46:\n        /* \"#utility.yul\":9757:9760   */\n      0x00\n        /* \"#utility.yul\":9780:9802   */\n      tag_181\n        /* \"#utility.yul\":9796:9801   */\n      dup3\n        /* \"#utility.yul\":9780:9802   */\n      tag_81\n      jump\t// in\n    tag_181:\n        /* \"#utility.yul\":9771:9802   */\n      swap2\n      pop\n        /* \"#utility.yul\":9824:9828   */\n      0xff\n        /* \"#utility.yul\":9817:9822   */\n      dup3\n        /* \"#utility.yul\":9814:9829   */\n      sub\n        /* \"#utility.yul\":9811:9852   */\n      tag_182\n      jumpi\n        /* \"#utility.yul\":9832:9850   */\n      tag_183\n      tag_80\n      jump\t// in\n    tag_183:\n        /* \"#utility.yul\":9811:9852   */\n    tag_182:\n        /* \"#utility.yul\":9879:9880   */\n      0x01\n        /* \"#utility.yul\":9872:9877   */\n      dup3\n        /* \"#utility.yul\":9868:9881   */\n      add\n        /* \"#utility.yul\":9861:9881   */\n      swap1\n      pop\n        /* \"#utility.yul\":9720:9887   */\n      swap2\n      swap1\n      pop\n      jump\t// out\n        /* \"#utility.yul\":9893:10084   */\n    tag_54:\n        /* \"#utility.yul\":9933:9936   */\n      0x00\n        /* \"#utility.yul\":9952:9972   */\n      tag_185\n        /* \"#utility.yul\":9970:9971   */\n      dup3\n        /* \"#utility.yul\":9952:9972   */\n      tag_67\n      jump\t// in\n    tag_185:\n        /* \"#utility.yul\":9947:9972   */\n      swap2\n      pop\n        /* \"#utility.yul\":9986:10006   */\n      tag_186\n        /* \"#utility.yul\":10004:10005   */\n      dup4\n        /* \"#utility.yul\":9986:10006   */\n      tag_67\n      jump\t// in\n    tag_186:\n        /* \"#utility.yul\":9981:10006   */\n      swap3\n      pop\n        /* \"#utility.yul\":10029:10030   */\n      dup3\n        /* \"#utility.yul\":10026:10027   */\n      dup3\n        /* \"#utility.yul\":10022:10031   */\n      add\n        /* \"#utility.yul\":10015:10031   */\n      swap1\n      pop\n        /* \"#utility.yul\":10050:10053   */\n      dup1\n        /* \"#utility.yul\":10047:10048   */\n      dup3\n        /* \"#utility.yul\":10044:10054   */\n      gt\n        /* \"#utility.yul\":10041:10077   */\n      iszero\n      tag_187\n      jumpi\n        /* \"#utility.yul\":10057:10075   */\n      tag_188\n      tag_80\n      jump\t// in\n    tag_188:\n        /* \"#utility.yul\":10041:10077   */\n    tag_187:\n        /* \"#utility.yul\":9893:10084   */\n      swap3\n      swap2\n      pop\n      pop\n      jump\t// out\n\n    auxdata: 0xa26469706673582212201a4e17d2b669693eeecaf7746e47b3d21fbd38fe56ac5dd6563c67aabe2d449764736f6c634300081a0033\n}\n",
				"bytecode": {
					"linkReferences": {},
					"object": "6080604052348015600e575f80fd5b506108438061001c5f395ff3fe608060405234801561000f575f80fd5b5060043610610034575f3560e01c806341ed24a214610038578063ccb8c1e014610054575b5f80fd5b610052600480360381019061004d91906103ee565b610084565b005b61006e6004803603810190610069919061047f565b61028a565b60405161007b91906104e2565b60405180910390f35b8181905084849050146100cc576040517f08c379a00000000000000000000000000000000000000000000000000000000081526004016100c39061057b565b60405180910390fd5b5f8590505f6100db848461028a565b9050808273ffffffffffffffffffffffffffffffffffffffff1663dd62ed3e33306040518363ffffffff1660e01b81526004016101199291906105a8565b602060405180830381865afa158015610134573d5f803e3d5ffd5b505050506040513d601f19601f8201168201806040525081019061015891906105f9565b1015610199576040517f08c379a00000000000000000000000000000000000000000000000000000000081526004016101909061066e565b60405180910390fd5b5f5b868690508160ff161015610280578273ffffffffffffffffffffffffffffffffffffffff166323b872dd3389898560ff168181106101dc576101db61068c565b5b90506020020160208101906101f191906106b9565b88888660ff168181106102075761020661068c565b5b905060200201356040518463ffffffff1660e01b815260040161022c939291906106e4565b6020604051808303815f875af1158015610248573d5f803e3d5ffd5b505050506040513d601f19601f8201168201806040525081019061026c919061074e565b508080610278906107b2565b91505061019b565b5050505050505050565b5f805f90505b838390508110156102cf578383828181106102ae576102ad61068c565b5b90506020020135826102c091906107da565b91508080600101915050610290565b5092915050565b5f80fd5b5f80fd5b5f73ffffffffffffffffffffffffffffffffffffffff82169050919050565b5f610307826102de565b9050919050565b610317816102fd565b8114610321575f80fd5b50565b5f813590506103328161030e565b92915050565b5f80fd5b5f80fd5b5f80fd5b5f8083601f84011261035957610358610338565b5b8235905067ffffffffffffffff8111156103765761037561033c565b5b60208301915083602082028301111561039257610391610340565b5b9250929050565b5f8083601f8401126103ae576103ad610338565b5b8235905067ffffffffffffffff8111156103cb576103ca61033c565b5b6020830191508360208202830111156103e7576103e6610340565b5b9250929050565b5f805f805f60608688031215610407576104066102d6565b5b5f61041488828901610324565b955050602086013567ffffffffffffffff811115610435576104346102da565b5b61044188828901610344565b9450945050604086013567ffffffffffffffff811115610464576104636102da565b5b61047088828901610399565b92509250509295509295909350565b5f8060208385031215610495576104946102d6565b5b5f83013567ffffffffffffffff8111156104b2576104b16102da565b5b6104be85828601610399565b92509250509250929050565b5f819050919050565b6104dc816104ca565b82525050565b5f6020820190506104f55f8301846104d3565b92915050565b5f82825260208201905092915050565b7f4c656e67746873206f662041646472657373657320416e64204163636f756e745f8201527f20204e6f7420455155414c000000000000000000000000000000000000000000602082015250565b5f610565602b836104fb565b91506105708261050b565b604082019050919050565b5f6020820190508181035f83015261059281610559565b9050919050565b6105a2816102fd565b82525050565b5f6040820190506105bb5f830185610599565b6105c86020830184610599565b9392505050565b6105d8816104ca565b81146105e2575f80fd5b50565b5f815190506105f3816105cf565b92915050565b5f6020828403121561060e5761060d6102d6565b5b5f61061b848285016105e5565b91505092915050565b7f54686520416c6c6f77616e6365204973204e4f5420456e6f75676800000000005f82015250565b5f610658601b836104fb565b915061066382610624565b602082019050919050565b5f6020820190508181035f8301526106858161064c565b9050919050565b7f4e487b71000000000000000000000000000000000000000000000000000000005f52603260045260245ffd5b5f602082840312156106ce576106cd6102d6565b5b5f6106db84828501610324565b91505092915050565b5f6060820190506106f75f830186610599565b6107046020830185610599565b61071160408301846104d3565b949350505050565b5f8115159050919050565b61072d81610719565b8114610737575f80fd5b50565b5f8151905061074881610724565b92915050565b5f60208284031215610763576107626102d6565b5b5f6107708482850161073a565b91505092915050565b7f4e487b71000000000000000000000000000000000000000000000000000000005f52601160045260245ffd5b5f60ff82169050919050565b5f6107bc826107a6565b915060ff82036107cf576107ce610779565b5b600182019050919050565b5f6107e4826104ca565b91506107ef836104ca565b925082820190508082111561080757610806610779565b5b9291505056fea26469706673582212201a4e17d2b669693eeecaf7746e47b3d21fbd38fe56ac5dd6563c67aabe2d449764736f6c634300081a0033",
					"opcodes": "PUSH1 0x80 PUSH1 0x40 MSTORE CALLVALUE DUP1 ISZERO PUSH1 0xE JUMPI PUSH0 DUP1 REVERT JUMPDEST POP PUSH2 0x843 DUP1 PUSH2 0x1C PUSH0 CODECOPY PUSH0 RETURN INVALID PUSH1 0x80 PUSH1 0x40 MSTORE CALLVALUE DUP1 ISZERO PUSH2 0xF JUMPI PUSH0 DUP1 REVERT JUMPDEST POP PUSH1 0x4 CALLDATASIZE LT PUSH2 0x34 JUMPI PUSH0 CALLDATALOAD PUSH1 0xE0 SHR DUP1 PUSH4 0x41ED24A2 EQ PUSH2 0x38 JUMPI DUP1 PUSH4 0xCCB8C1E0 EQ PUSH2 0x54 JUMPI JUMPDEST PUSH0 DUP1 REVERT JUMPDEST PUSH2 0x52 PUSH1 0x4 DUP1 CALLDATASIZE SUB DUP2 ADD SWAP1 PUSH2 0x4D SWAP2 SWAP1 PUSH2 0x3EE JUMP JUMPDEST PUSH2 0x84 JUMP JUMPDEST STOP JUMPDEST PUSH2 0x6E PUSH1 0x4 DUP1 CALLDATASIZE SUB DUP2 ADD SWAP1 PUSH2 0x69 SWAP2 SWAP1 PUSH2 0x47F JUMP JUMPDEST PUSH2 0x28A JUMP JUMPDEST PUSH1 0x40 MLOAD PUSH2 0x7B SWAP2 SWAP1 PUSH2 0x4E2 JUMP JUMPDEST PUSH1 0x40 MLOAD DUP1 SWAP2 SUB SWAP1 RETURN JUMPDEST DUP2 DUP2 SWAP1 POP DUP5 DUP5 SWAP1 POP EQ PUSH2 0xCC JUMPI PUSH1 0x40 MLOAD PUSH32 0x8C379A000000000000000000000000000000000000000000000000000000000 DUP2 MSTORE PUSH1 0x4 ADD PUSH2 0xC3 SWAP1 PUSH2 0x57B JUMP JUMPDEST PUSH1 0x40 MLOAD DUP1 SWAP2 SUB SWAP1 REVERT JUMPDEST PUSH0 DUP6 SWAP1 POP PUSH0 PUSH2 0xDB DUP5 DUP5 PUSH2 0x28A JUMP JUMPDEST SWAP1 POP DUP1 DUP3 PUSH20 0xFFFFFFFFFFFFFFFFFFFFFFFFFFFFFFFFFFFFFFFF AND PUSH4 0xDD62ED3E CALLER ADDRESS PUSH1 0x40 MLOAD DUP4 PUSH4 0xFFFFFFFF AND PUSH1 0xE0 SHL DUP2 MSTORE PUSH1 0x4 ADD PUSH2 0x119 SWAP3 SWAP2 SWAP1 PUSH2 0x5A8 JUMP JUMPDEST PUSH1 0x20 PUSH1 0x40 MLOAD DUP1 DUP4 SUB DUP2 DUP7 GAS STATICCALL ISZERO DUP1 ISZERO PUSH2 0x134 JUMPI RETURNDATASIZE PUSH0 DUP1 RETURNDATACOPY RETURNDATASIZE PUSH0 REVERT JUMPDEST POP POP POP POP PUSH1 0x40 MLOAD RETURNDATASIZE PUSH1 0x1F NOT PUSH1 0x1F DUP3 ADD AND DUP3 ADD DUP1 PUSH1 0x40 MSTORE POP DUP2 ADD SWAP1 PUSH2 0x158 SWAP2 SWAP1 PUSH2 0x5F9 JUMP JUMPDEST LT ISZERO PUSH2 0x199 JUMPI PUSH1 0x40 MLOAD PUSH32 0x8C379A000000000000000000000000000000000000000000000000000000000 DUP2 MSTORE PUSH1 0x4 ADD PUSH2 0x190 SWAP1 PUSH2 0x66E JUMP JUMPDEST PUSH1 0x40 MLOAD DUP1 SWAP2 SUB SWAP1 REVERT JUMPDEST PUSH0 JUMPDEST DUP7 DUP7 SWAP1 POP DUP2 PUSH1 0xFF AND LT ISZERO PUSH2 0x280 JUMPI DUP3 PUSH20 0xFFFFFFFFFFFFFFFFFFFFFFFFFFFFFFFFFFFFFFFF AND PUSH4 0x23B872DD CALLER DUP10 DUP10 DUP6 PUSH1 0xFF AND DUP2 DUP2 LT PUSH2 0x1DC JUMPI PUSH2 0x1DB PUSH2 0x68C JUMP JUMPDEST JUMPDEST SWAP1 POP PUSH1 0x20 MUL ADD PUSH1 0x20 DUP2 ADD SWAP1 PUSH2 0x1F1 SWAP2 SWAP1 PUSH2 0x6B9 JUMP JUMPDEST DUP9 DUP9 DUP7 PUSH1 0xFF AND DUP2 DUP2 LT PUSH2 0x207 JUMPI PUSH2 0x206 PUSH2 0x68C JUMP JUMPDEST JUMPDEST SWAP1 POP PUSH1 0x20 MUL ADD CALLDATALOAD PUSH1 0x40 MLOAD DUP5 PUSH4 0xFFFFFFFF AND PUSH1 0xE0 SHL DUP2 MSTORE PUSH1 0x4 ADD PUSH2 0x22C SWAP4 SWAP3 SWAP2 SWAP1 PUSH2 0x6E4 JUMP JUMPDEST PUSH1 0x20 PUSH1 0x40 MLOAD DUP1 DUP4 SUB DUP2 PUSH0 DUP8 GAS CALL ISZERO DUP1 ISZERO PUSH2 0x248 JUMPI RETURNDATASIZE PUSH0 DUP1 RETURNDATACOPY RETURNDATASIZE PUSH0 REVERT JUMPDEST POP POP POP POP PUSH1 0x40 MLOAD RETURNDATASIZE PUSH1 0x1F NOT PUSH1 0x1F DUP3 ADD AND DUP3 ADD DUP1 PUSH1 0x40 MSTORE POP DUP2 ADD SWAP1 PUSH2 0x26C SWAP2 SWAP1 PUSH2 0x74E JUMP JUMPDEST POP DUP1 DUP1 PUSH2 0x278 SWAP1 PUSH2 0x7B2 JUMP JUMPDEST SWAP2 POP POP PUSH2 0x19B JUMP JUMPDEST POP POP POP POP POP POP POP POP JUMP JUMPDEST PUSH0 DUP1 PUSH0 SWAP1 POP JUMPDEST DUP4 DUP4 SWAP1 POP DUP2 LT ISZERO PUSH2 0x2CF JUMPI DUP4 DUP4 DUP3 DUP2 DUP2 LT PUSH2 0x2AE JUMPI PUSH2 0x2AD PUSH2 0x68C JUMP JUMPDEST JUMPDEST SWAP1 POP PUSH1 0x20 MUL ADD CALLDATALOAD DUP3 PUSH2 0x2C0 SWAP2 SWAP1 PUSH2 0x7DA JUMP JUMPDEST SWAP2 POP DUP1 DUP1 PUSH1 0x1 ADD SWAP2 POP POP PUSH2 0x290 JUMP JUMPDEST POP SWAP3 SWAP2 POP POP JUMP JUMPDEST PUSH0 DUP1 REVERT JUMPDEST PUSH0 DUP1 REVERT JUMPDEST PUSH0 PUSH20 0xFFFFFFFFFFFFFFFFFFFFFFFFFFFFFFFFFFFFFFFF DUP3 AND SWAP1 POP SWAP2 SWAP1 POP JUMP JUMPDEST PUSH0 PUSH2 0x307 DUP3 PUSH2 0x2DE JUMP JUMPDEST SWAP1 POP SWAP2 SWAP1 POP JUMP JUMPDEST PUSH2 0x317 DUP2 PUSH2 0x2FD JUMP JUMPDEST DUP2 EQ PUSH2 0x321 JUMPI PUSH0 DUP1 REVERT JUMPDEST POP JUMP JUMPDEST PUSH0 DUP2 CALLDATALOAD SWAP1 POP PUSH2 0x332 DUP2 PUSH2 0x30E JUMP JUMPDEST SWAP3 SWAP2 POP POP JUMP JUMPDEST PUSH0 DUP1 REVERT JUMPDEST PUSH0 DUP1 REVERT JUMPDEST PUSH0 DUP1 REVERT JUMPDEST PUSH0 DUP1 DUP4 PUSH1 0x1F DUP5 ADD SLT PUSH2 0x359 JUMPI PUSH2 0x358 PUSH2 0x338 JUMP JUMPDEST JUMPDEST DUP3 CALLDATALOAD SWAP1 POP PUSH8 0xFFFFFFFFFFFFFFFF DUP2 GT ISZERO PUSH2 0x376 JUMPI PUSH2 0x375 PUSH2 0x33C JUMP JUMPDEST JUMPDEST PUSH1 0x20 DUP4 ADD SWAP2 POP DUP4 PUSH1 0x20 DUP3 MUL DUP4 ADD GT ISZERO PUSH2 0x392 JUMPI PUSH2 0x391 PUSH2 0x340 JUMP JUMPDEST JUMPDEST SWAP3 POP SWAP3 SWAP1 POP JUMP JUMPDEST PUSH0 DUP1 DUP4 PUSH1 0x1F DUP5 ADD SLT PUSH2 0x3AE JUMPI PUSH2 0x3AD PUSH2 0x338 JUMP JUMPDEST JUMPDEST DUP3 CALLDATALOAD SWAP1 POP PUSH8 0xFFFFFFFFFFFFFFFF DUP2 GT ISZERO PUSH2 0x3CB JUMPI PUSH2 0x3CA PUSH2 0x33C JUMP JUMPDEST JUMPDEST PUSH1 0x20 DUP4 ADD SWAP2 POP DUP4 PUSH1 0x20 DUP3 MUL DUP4 ADD GT ISZERO PUSH2 0x3E7 JUMPI PUSH2 0x3E6 PUSH2 0x340 JUMP JUMPDEST JUMPDEST SWAP3 POP SWAP3 SWAP1 POP JUMP JUMPDEST PUSH0 DUP1 PUSH0 DUP1 PUSH0 PUSH1 0x60 DUP7 DUP9 SUB SLT ISZERO PUSH2 0x407 JUMPI PUSH2 0x406 PUSH2 0x2D6 JUMP JUMPDEST JUMPDEST PUSH0 PUSH2 0x414 DUP9 DUP3 DUP10 ADD PUSH2 0x324 JUMP JUMPDEST SWAP6 POP POP PUSH1 0x20 DUP7 ADD CALLDATALOAD PUSH8 0xFFFFFFFFFFFFFFFF DUP2 GT ISZERO PUSH2 0x435 JUMPI PUSH2 0x434 PUSH2 0x2DA JUMP JUMPDEST JUMPDEST PUSH2 0x441 DUP9 DUP3 DUP10 ADD PUSH2 0x344 JUMP JUMPDEST SWAP5 POP SWAP5 POP POP PUSH1 0x40 DUP7 ADD CALLDATALOAD PUSH8 0xFFFFFFFFFFFFFFFF DUP2 GT ISZERO PUSH2 0x464 JUMPI PUSH2 0x463 PUSH2 0x2DA JUMP JUMPDEST JUMPDEST PUSH2 0x470 DUP9 DUP3 DUP10 ADD PUSH2 0x399 JUMP JUMPDEST SWAP3 POP SWAP3 POP POP SWAP3 SWAP6 POP SWAP3 SWAP6 SWAP1 SWAP4 POP JUMP JUMPDEST PUSH0 DUP1 PUSH1 0x20 DUP4 DUP6 SUB SLT ISZERO PUSH2 0x495 JUMPI PUSH2 0x494 PUSH2 0x2D6 JUMP JUMPDEST JUMPDEST PUSH0 DUP4 ADD CALLDATALOAD PUSH8 0xFFFFFFFFFFFFFFFF DUP2 GT ISZERO PUSH2 0x4B2 JUMPI PUSH2 0x4B1 PUSH2 0x2DA JUMP JUMPDEST JUMPDEST PUSH2 0x4BE DUP6 DUP3 DUP7 ADD PUSH2 0x399 JUMP JUMPDEST SWAP3 POP SWAP3 POP POP SWAP3 POP SWAP3 SWAP1 POP JUMP JUMPDEST PUSH0 DUP2 SWAP1 POP SWAP2 SWAP1 POP JUMP JUMPDEST PUSH2 0x4DC DUP2 PUSH2 0x4CA JUMP JUMPDEST DUP3 MSTORE POP POP JUMP JUMPDEST PUSH0 PUSH1 0x20 DUP3 ADD SWAP1 POP PUSH2 0x4F5 PUSH0 DUP4 ADD DUP5 PUSH2 0x4D3 JUMP JUMPDEST SWAP3 SWAP2 POP POP JUMP JUMPDEST PUSH0 DUP3 DUP3 MSTORE PUSH1 0x20 DUP3 ADD SWAP1 POP SWAP3 SWAP2 POP POP JUMP JUMPDEST PUSH32 0x4C656E67746873206F662041646472657373657320416E64204163636F756E74 PUSH0 DUP3 ADD MSTORE PUSH32 0x20204E6F7420455155414C000000000000000000000000000000000000000000 PUSH1 0x20 DUP3 ADD MSTORE POP JUMP JUMPDEST PUSH0 PUSH2 0x565 PUSH1 0x2B DUP4 PUSH2 0x4FB JUMP JUMPDEST SWAP2 POP PUSH2 0x570 DUP3 PUSH2 0x50B JUMP JUMPDEST PUSH1 0x40 DUP3 ADD SWAP1 POP SWAP2 SWAP1 POP JUMP JUMPDEST PUSH0 PUSH1 0x20 DUP3 ADD SWAP1 POP DUP2 DUP2 SUB PUSH0 DUP4 ADD MSTORE PUSH2 0x592 DUP2 PUSH2 0x559 JUMP JUMPDEST SWAP1 POP SWAP2 SWAP1 POP JUMP JUMPDEST PUSH2 0x5A2 DUP2 PUSH2 0x2FD JUMP JUMPDEST DUP3 MSTORE POP POP JUMP JUMPDEST PUSH0 PUSH1 0x40 DUP3 ADD SWAP1 POP PUSH2 0x5BB PUSH0 DUP4 ADD DUP6 PUSH2 0x599 JUMP JUMPDEST PUSH2 0x5C8 PUSH1 0x20 DUP4 ADD DUP5 PUSH2 0x599 JUMP JUMPDEST SWAP4 SWAP3 POP POP POP JUMP JUMPDEST PUSH2 0x5D8 DUP2 PUSH2 0x4CA JUMP JUMPDEST DUP2 EQ PUSH2 0x5E2 JUMPI PUSH0 DUP1 REVERT JUMPDEST POP JUMP JUMPDEST PUSH0 DUP2 MLOAD SWAP1 POP PUSH2 0x5F3 DUP2 PUSH2 0x5CF JUMP JUMPDEST SWAP3 SWAP2 POP POP JUMP JUMPDEST PUSH0 PUSH1 0x20 DUP3 DUP5 SUB SLT ISZERO PUSH2 0x60E JUMPI PUSH2 0x60D PUSH2 0x2D6 JUMP JUMPDEST JUMPDEST PUSH0 PUSH2 0x61B DUP5 DUP3 DUP6 ADD PUSH2 0x5E5 JUMP JUMPDEST SWAP2 POP POP SWAP3 SWAP2 POP POP JUMP JUMPDEST PUSH32 0x54686520416C6C6F77616E6365204973204E4F5420456E6F7567680000000000 PUSH0 DUP3 ADD MSTORE POP JUMP JUMPDEST PUSH0 PUSH2 0x658 PUSH1 0x1B DUP4 PUSH2 0x4FB JUMP JUMPDEST SWAP2 POP PUSH2 0x663 DUP3 PUSH2 0x624 JUMP JUMPDEST PUSH1 0x20 DUP3 ADD SWAP1 POP SWAP2 SWAP1 POP JUMP JUMPDEST PUSH0 PUSH1 0x20 DUP3 ADD SWAP1 POP DUP2 DUP2 SUB PUSH0 DUP4 ADD MSTORE PUSH2 0x685 DUP2 PUSH2 0x64C JUMP JUMPDEST SWAP1 POP SWAP2 SWAP1 POP JUMP JUMPDEST PUSH32 0x4E487B7100000000000000000000000000000000000000000000000000000000 PUSH0 MSTORE PUSH1 0x32 PUSH1 0x4 MSTORE PUSH1 0x24 PUSH0 REVERT JUMPDEST PUSH0 PUSH1 0x20 DUP3 DUP5 SUB SLT ISZERO PUSH2 0x6CE JUMPI PUSH2 0x6CD PUSH2 0x2D6 JUMP JUMPDEST JUMPDEST PUSH0 PUSH2 0x6DB DUP5 DUP3 DUP6 ADD PUSH2 0x324 JUMP JUMPDEST SWAP2 POP POP SWAP3 SWAP2 POP POP JUMP JUMPDEST PUSH0 PUSH1 0x60 DUP3 ADD SWAP1 POP PUSH2 0x6F7 PUSH0 DUP4 ADD DUP7 PUSH2 0x599 JUMP JUMPDEST PUSH2 0x704 PUSH1 0x20 DUP4 ADD DUP6 PUSH2 0x599 JUMP JUMPDEST PUSH2 0x711 PUSH1 0x40 DUP4 ADD DUP5 PUSH2 0x4D3 JUMP JUMPDEST SWAP5 SWAP4 POP POP POP POP JUMP JUMPDEST PUSH0 DUP2 ISZERO ISZERO SWAP1 POP SWAP2 SWAP1 POP JUMP JUMPDEST PUSH2 0x72D DUP2 PUSH2 0x719 JUMP JUMPDEST DUP2 EQ PUSH2 0x737 JUMPI PUSH0 DUP1 REVERT JUMPDEST POP JUMP JUMPDEST PUSH0 DUP2 MLOAD SWAP1 POP PUSH2 0x748 DUP2 PUSH2 0x724 JUMP JUMPDEST SWAP3 SWAP2 POP POP JUMP JUMPDEST PUSH0 PUSH1 0x20 DUP3 DUP5 SUB SLT ISZERO PUSH2 0x763 JUMPI PUSH2 0x762 PUSH2 0x2D6 JUMP JUMPDEST JUMPDEST PUSH0 PUSH2 0x770 DUP5 DUP3 DUP6 ADD PUSH2 0x73A JUMP JUMPDEST SWAP2 POP POP SWAP3 SWAP2 POP POP JUMP JUMPDEST PUSH32 0x4E487B7100000000000000000000000000000000000000000000000000000000 PUSH0 MSTORE PUSH1 0x11 PUSH1 0x4 MSTORE PUSH1 0x24 PUSH0 REVERT JUMPDEST PUSH0 PUSH1 0xFF DUP3 AND SWAP1 POP SWAP2 SWAP1 POP JUMP JUMPDEST PUSH0 PUSH2 0x7BC DUP3 PUSH2 0x7A6 JUMP JUMPDEST SWAP2 POP PUSH1 0xFF DUP3 SUB PUSH2 0x7CF JUMPI PUSH2 0x7CE PUSH2 0x779 JUMP JUMPDEST JUMPDEST PUSH1 0x1 DUP3 ADD SWAP1 POP SWAP2 SWAP1 POP JUMP JUMPDEST PUSH0 PUSH2 0x7E4 DUP3 PUSH2 0x4CA JUMP JUMPDEST SWAP2 POP PUSH2 0x7EF DUP4 PUSH2 0x4CA JUMP JUMPDEST SWAP3 POP DUP3 DUP3 ADD SWAP1 POP DUP1 DUP3 GT ISZERO PUSH2 0x807 JUMPI PUSH2 0x806 PUSH2 0x779 JUMP JUMPDEST JUMPDEST SWAP3 SWAP2 POP POP JUMP INVALID LOG2 PUSH5 0x6970667358 0x22 SLT KECCAK256 BYTE 0x4E OR 0xD2 0xB6 PUSH10 0x693EEECAF7746E47B3D2 0x1F 0xBD CODESIZE INVALID JUMP 0xAC TSTORE 0xD6 JUMP EXTCODECOPY PUSH8 0xAABE2D449764736F PUSH13 0x634300081A0033000000000000 "
				},
				"gasEstimates": {
					"creation": {
						"codeDepositCost": "423000",
						"executionCost": "459",
						"totalCost": "423459"
					},
					"external": {
						"getSum(uint256[])": "infinite",
						"multiTransferToken(address,address[],uint256[])": "infinite"
					}
				},
				"methodIdentifiers": {
					"getSum(uint256[])": "ccb8c1e0",
					"multiTransferToken(address,address[],uint256[])": "41ed24a2"
				}
			},
			"storageLayout": {
				"storage": [
					{
						"astId": 6,
						"contract": "contracts/Airdrop/Airdrop.sol:Airdrop",
						"label": "failTransferList",
						"offset": 0,
						"slot": "0",
						"type": "t_mapping(t_address,t_uint256)"
					}
				],
				"types": {
					"t_address": {
						"encoding": "inplace",
						"label": "address",
						"numberOfBytes": "20"
					},
					"t_mapping(t_address,t_uint256)": {
						"encoding": "mapping",
						"key": "t_address",
						"label": "mapping(address => uint256)",
						"numberOfBytes": "32",
						"value": "t_uint256"
					},
					"t_uint256": {
						"encoding": "inplace",
						"label": "uint256",
						"numberOfBytes": "32"
					}
				}
			},
			"userdoc": {
				"kind": "user",
				"methods": {},
				"version": 1
			}
		}
	}
}